:020000040800F2
:10000000801B0020191E000821190008051E000889
:10001000051E0008051E0008051E0008000000005F
:100020000000000000000000000000001D1F00088C
:10003000051E000800000000E91E0008E93600085F
:100040009D2000089D2000089D2000089D2000089C
:100050009D2000089D2000089D2000089D2000088C
:100060009D2000089D2000089D2000089D2000087C
:100070009D2000089D2000089D2000089D2000086C
:100080009D2000089D2000089D2000089D2000085C
:100090009D2000089D2000089D2000089D2000084C
:1000A0009D2000089D2000089D2000089D2000083C
:1000B0009D2000089D2000089D2000089D2000082C
:1000C0009D2000089D2000089D2000089D2000081C
:1000D0009D2000089D2000089D2000089D2000080C
:1000E0009D2000089D2000089D2000089D200008FC
:1000F0009D2000089D2000089D2000089D200008EC
:100100009D2000089D2000089D2000089D200008DB
:100110009D2000089D2000089D2000089D200008CB
:100120009D2000089D2000089D2000089D200008BB
:100130009D2000089D2000089D2000089D200008AB
:100140009D2000089D2000089D2000089D2000089B
:100150009D2000089D2000089D2000089D2000088B
:100160009D2000089D2000089D2000089D2000087B
:100170009D2000089D2000089D2000089D2000086B
:080180009D2000089D200008ED
:1001880053B94AB9002908BF00281CBF4FF0FF31F6
:100198004FF0FF3000F00CB8ADF1080C6DE904CE5B
:1001A80000F008F8DDF804E0DDE9022304B0704748
:1001B800704700BF2DE9F04786468C460846089EE2
:1001C800154674461946002B40F0C2808542B2FAA3
:1001D80082F245D94AB1C2F1200300FA02FC2EFA94
:1001E80003F3954043EA0C0C94404FEA154EA8B22D
:1001F800BCFBFEF8230C0EFB18CC08FB00F943EA05
:100208000C43994528D9EB1808F1FF3704D29945D2
:1002180002D9A8F102072B44A3EB0903A4B2B3FB4C
:10022800FEFC0EFB1C330CFB00F044EA0344A04226
:1002380014D92C190CF1FF3304D2A04202D9ACF125
:1002480002032C44241A43EA07401EB1D440002379
:1002580034607360BDE8F0874746DDE76346F1E741
:1002680092BB431B01214FEA154EAFB2B3FBFEFC14
:10027800200C0EFB1C330CFB07F840EA034398459F
:1002880062D9EB180CF1FF3004D2984502D9ACF1D1
:1002980002002B44A3EB0803A4B2B3FBFEFC0EFB45
:1002A8001C330CFB07F744EA0344A7424ED92C1928
:1002B8000CF1FF3304D2A74202D9ACF102032C445B
:1002C800E41B43EA0040C0E7C2F1200320FA03F12F
:1002D800954090402EFA03F303434FEA154EAFB210
:1002E800B1FBFEFC0EFB1C10190C0CFB07F841EAD5
:1002F8000041884504FA02F422D969180CF1FF304C
:1003080004D2884502D9ACF102002944A1EB0801C6
:100318009BB2B1FBFEFC0EFB1C110CFB07F743EA7A
:1003280001439F420ED9EB180CF1FF3104D29F42D2
:1003380002D9ACF102012B44DB1B41EA004192E7F0
:100348006046E3E76146F7E76046A3E76346B7E739
:10035800834206D916B9002108467BE7C6E900E0C2
:10036800F9E7B3FA83F78FB9834201D3724508D806
:10037800BEEB020460EB030301209C461EB900217A
:1003880068E73846FAE7C6E9004CF8E7C7F1200CF9
:10039800BB4022FA0CF41C432EFA0CF120FA0CF3A1
:1003A800B84001434FEA14490EFA07F5B3FBF9F8D0
:1003B8001FFA84FE09FB18300B0C08FB0EFA43EAFF
:1003C80000439A4502FA07F240D9E31808F1FF30D2
:1003D80004D29A4502D9A8F102002344A3EB0A03E8
:1003E80089B2B3FBF9F809FB183308FB0EFE41EAA2
:1003F80003418E452CD9611808F1FF3304D28E458C
:1004080002D9A8F10203214443EA0040A0FB029864
:10041800A1EB0E014145CE46434602D306D14D45D8
:1004280004D2B9EB020E68EB04030138002EA6D003
:10043800B5EB0E0261EB030101FA0CFC22FA07F39B
:100448004CEA0303F940C6E9003198E74046C5E79E
:100458004346D9E7034613F8012B002AFBD1181AA3
:1004680001387047002B08B509DB084A0848032102
:1004780005F092F80748BDE8084003F08FBC064A2B
:100488000348012105F091F8F4E700BF8A6F0008DE
:10049800786A0008BC000020A36F00082DE9F0432B
:1004A80091B000AF3F4805F09FFE28B93E4A0121B0
:1004B8003E4805F071F83AE03D4E0024334603F813
:1004C800014B0134402CFAD13A4D224600212846EE
:1004D80006F07DF81822002107F1280006F077F8C9
:1004E80018220021381D7C63C7E9086506F06FF8FB
:1004F80008237B712B4C4FF00113C7E9023307F136
:1005080020037B61D4F808902B4BFB614FF0010866
:10051800C7F81080D9F800303A1D002120469847C6
:10052800034648B1254A2148414605F03EF80020D7
:100538004437BD46BDE8F0830146D9F80820204677
:100548009047044610B11E4A0346ECE71D4A174877
:10055800032105F021F81C484FF0FF324FF0FF331C
:1005680003F040FC16F8011B15F8013B994212D024
:100578006D468AB06A461548C2E907130523C2E9E1
:10058800050442F8103F094800234FF4215100F0B8
:10059800A3FEAD46CBE70134402CE3D10C4A03213E
:1005A80086E700BFF0660008BB6F0008786A00089D
:1005B80090070020500700206D040008CD6F000848
:1005C800E26F0008F66F0008BC0000202A700008DF
:1005D800557000082DE9F04F91B08407009302F0A0
:1005E80004030293C2F3C20303F10103DDF8689028
:1005F800039205460E46059340F0BA81041D30B1BA
:10060800072909D86FF01B0011B0BDE8F08F01F081
:100618000706341DC6F10806009B4FF00008591E56
:100628004FF0040A4FF0FF330193CDF8108047468E
:10063800C34653460DB1009A22600598002800F37E
:10064800E8809848009A824203D397488242C0F0D3
:10065800E080039AA4EB050E92074FEA9E0000F192
:1006680003810F2F00F2B180002D00F0058107F102
:1006780040020DEB020C019A0CF8200C0CF8102C1F
:10068800049801300490E7E07A285DD84B280ED80A
:10069800472859D829282DD8252852D054D8202879
:1006A8007AD02338D0F1000B4BEB000B74E04C38B8
:1006B8002E2849D8DFE800F070484848484848489C
:1006C800484848484B484848484848484859484B8B
:1006D8004B595959704B6D487048184B1848488207
:1006E8007F4B48484B487F0000204FF0000B4FF0ED
:1006F800040A38E02A38C0B2012202FA00F010EAEF
:100708000E0F49D110F0625C2FD110EA020B43D0D2
:100718006046013C5444B4FBFAF40AFB04F4002D8F
:1007280061D0A3EB050CA444B4453FF66BAF002899
:1007380068D1042B47D159F8043B236004340423BF
:100748002AE0019A013A01924FF0000B24E011F8D7
:10075800010C6C2834D111F8023C00206C2B834624
:10076800C5D14FF0080A5346D3E709F1070929F024
:1007780007090734F9E802AB24F0070435B10698F5
:100788002044B0423FF63EAFC4E900AB08344FF016
:10079800000B4FF0080A534611F8010F002878D0D3
:1007A800BBF1000F7FF470AF2528F5D1019B013311
:1007B80001934FF0010B4FF0040AECE7584694E719
:1007C80000208346A5E7082B02D06FF015001BE731
:1007D80009F1070929F00709F9E80223C4E9002308
:1007E80008340823D8E768B9042B02D109F10409B1
:1007F800A4E7082BE9D109F1070929F0070909F14C
:100808000809EDE7059A013A059259F8042B009278
:1008180010E7039A900720D5A4EB050E4FEA9E0037
:100828004FF0010CBEF5007FCFD20F2FCDD8F5B118
:1008380007F140020DEB020EC0B2019A0EF8200C2F
:100848000EF8102CBCF1000F3FF41AAF60F07F00D7
:100858000EF8200C08F101080137C5F1080204342C
:1008680006924FF6DA7E97E74FF0000CDAE7BCF114
:10087800000F01D00136EFE7029802360028EBD1CD
:100888000098CDE90631FFF7E5FDDDE906310644BC
:10089800E2E7631BB3F5806F97D23DB9A6F1080470
:1008A800E018B1E60C660008787C0008029A286017
:1008B8009B082B709DF81030C2B1EB7085F8028050
:1008C800B8F1000F05D008A80022C5F1010C974225
:1008D8000ED1C5F101030DF120094FF0000A019373
:1008E8000DF1300B574512D1601B8DE66B70E5E7B3
:1008F80010F8013B190608D504EB0C0EB64503F0B9
:100908007F033FF67FAE04F8013B0132DFE7B8F121
:10091800000F03D099F90020002A17DB029BD3B1FE
:100928001AF80B2004F8012B0022019B9818204488
:10093800B0423FF667AE99F8000004F8010B009941
:100948000392204605F035FE039A14440AF1010A81
:1009580009F10109C6E799F8002055F822300093FB
:10096800029B45F822300098FFF774FD421CDCE733
:100978006FF00D0048E600BF2DE9F04F97B000AFCB
:1009880090F802A0D7F880B03B62CBF3C0030446CE
:10099800FA62BB61894641B9457800780AEB800064
:1009A80020444D4517D8A0EB0409E378FB61BAF160
:1009B800000F02D01BF0010F16D1FB6953BBFB6A75
:1009C8001BB13A6A4946204698474D4628465C3747
:1009D800BD46BDE8F08F461C3046FFF73BFD0130B1
:1009E800304409F10109DCE7237862687A62FA6A1F
:1009F8009900796104EB8301002A40F000814D469B
:100A08000E4601EB0A094FF000084E454CD101EBA8
:100A18000A0610E01BF0020FD1D023789A007A6101
:100A280062687A62FA6A04EB8301002A77D14D463C
:100A380001EB0A0690461BF0050F0CBF02230123A9
:100A4800FB62FB6906EB430A0BF00203BB625645E7
:100A5800BCD016F8021B16F8013C54F82390AF4B93
:100A6800994502D3AE4B994536D3BB69002B40D08C
:100A7800786A04F06EFA00283BD0E9468AB06A46E4
:100A8800A84B53617B6AC2E906314FF400731384A3
:100A9800A54B42F8103FA54800234FF4125100F02F
:100AA8001BFC023DCD46D2E716F8013BF96254F82B
:100AB8002300FFF7CFFCD7F88430F96A01304BB137
:100AC800D7F8883098453EBFD7F8843023F8180007
:100AD80008F10108054498E7BB6923B1786A04F076
:100AE80038FA0028C9D11BF0010F05D1FB6AED1AAD
:100AF800ADE7BB6A002BAAD04846FFF7ABFCD7F896
:100B0800843053B1D7F8883098453FBFD7F8842050
:100B1800431C22F8183008F10108054497E7BAF198
:100B2800000F72D01BF0040672D0D046002607F1E1
:100B3800480052463B61B96205F03BFDB96A3B6922
:100B480001EB0A02BA62FA69F9695200FA60BA6AF4
:100B580002EB41023A610BF00202BA603A69B96AE3
:100B68008A4257D162787A621BF0020F32440CBF76
:100B78004FEA580100211BF0010FD2B240F09F80CC
:100B88001BF0040F14BF40460020BB616270A070C8
:100B9800E1703A6A7969FB6A20469847051EFFF6B4
:100BA80015AFBB6923707B6A6370FB69E3704146CC
:100BB8003A6AFB6A84F802A007F148009847B0F146
:100BC8000008C0F2B5807B693A6AA9EB0A01C91A24
:100BD800FB68C91AD7E90A0398470028C0F2AA8017
:100BE800A84408EB00054FF0000B07F1380AB3459D
:100BF80067D300213A6AFB6A08469847E6E65646F4
:100C08004FF0000807F1380093E75646D04697E7BB
:100C1800B04695E7BA6A12F8021BBA6212F8015C8C
:100C28003E4A54F82500904202D33D4A90421ED3D2
:100C3800BA6932B1786A7B6004F08BF97B68002866
:100C48008CD1BA6802BB08F1280207F1300C08F110
:100C58000100944407F1580252FA80F008F10208A2
:100C68000CF8101C5FFA88F800F8105C76E7BA698F
:100C78003AB1786A7B6004F06CF97B6800287FF4ED
:100C88006DAF1BF0010F09D006F1280207F1300003
:100C9800711C161806F8205CCEB25FE71BF0040F33
:100CA8003FF45CAF08F1280207F1300008F10101B8
:100CB80002EB000808F8105C5FFA81F84EE70020A4
:100CC80063E71BF80A3087F8373054F82390D7F8D1
:100CD8008430FBB133F81B803A6AFB6A012107F1C3
:100CE80037009847002825DB0544B8F1000F06D1E6
:100CF8004846FFF7AFFB00F101081FFA88F83A6A87
:100D0800FB6A414648469847002813DB05440BF127
:100D1800010B6CE7D7F88480DEE700BF0C6600089B
:100D2800787C00087870000804000001706A0008E8
:100D380045464BE6054649E6014B1860704700BF3B
:100D48000000002080B505460E461746984603F079
:100D58003BFB034605F04CFCDFF81890044649F8C5
:100D68000030424630463946A84754F8090001F099
:100D780065F800BF08000000034A536823F0020327
:100D880053600020704700BF002004E0084B1A6839
:100D980042F480721A601A6842F400721A601A6883
:100DA80042F480621A60034B034A1A6000207047BD
:100DB800003C0240440000200024F4002DE9F047E4
:100DC800DFF85880044607464FF0010914B9384641
:100DD800BDE8F08794FAA4F5B5FA85F509FA05F3A4
:100DE8002E0108EB05156FEA030A24EA03042B7B9E
:100DF800002BEBD058F806301B694BB94644042247
:100E080073682846196807EA0A0700F051FADDE70F
:100E1800284698470028D9D1F0E700BFC86A0008DB
:100E280030B51049104889B0002205F037FB0F4D46
:100E38000F4900220023CDE9062300240E23CDE923
:100E48000334CDE901440B4B00944FF4407228461B
:100E580003F03AF80849284605F013FA204609B085
:100E680030BD00BF850E000868050020E0000020A6
:100E7800800A00205D1100082C710008014802F06A
:100E88008DBF00BFCC0000202DE9F04780461E48EA
:100E98000F4604F0F7FA064678B300252846BDE861
:100EA800F087237B6BB12368DB680BB1204698473A
:100EB80023681B69CBB9636804221968204600F0CF
:100EC800F7F9013610344C45EBD3B8F1000FE5D0F3
:100ED800002DE2D02846FFF771FF0546002FF7D016
:100EE80000210A2003F05CFAF2E720469847002820
:100EF800E1D00AFA06F31D43E3E7044CDFF810904B
:100F080005464FF0010ADEE7E0070020C86A00083E
:100F1800D86A0008014B53F820007047F46A0008AB
:100F280008B5034608462BB1044A136000F06AFC72
:100F3800002008BD6FF01500FBE700BF040000208B
:100F480010B5044C237813B9034802F027FF012396
:100F5800237010BD640A0020CC00002010B50446A0
:100F6800084804F08FFA5CB1BFF35B8F064B53E877
:100F7800001F013943E80012002AF8D1BFF35B8F44
:100F880010BD00BFD8070020DC0700200020064B5A
:100F9800BFF35B8F014653E8000F43E80012002AB5
:100FA800F9D1BFF35B8F7047D807002070B5FFF702
:100FB800EDFF084C084E0546B44200D370BD636887
:100FC8005B792BB123685B6813B1294620469847A3
:100FD8001034F1E7C86A0008D86A000810B5044C54
:100FE8000449204604F0E3F8034B1C6010BD00BF21
:100FF80080000020E06A0008D0070020084A09485D
:1010080008B500231370084A1360084A4FF47A7130
:101018001360FFF785FFBDE80840FFF7DFBF00BF9B
:10102800650A0020A7540008D8070020DC07002024
:10103800014600220148002304F0DAB880000020AD
:10104800014804F070B900BF80000020024B01463F
:10105800186804F0BCB900BFD0070020014804F0AC
:10106800F1B900BF8000002070B5234B1878002824
:1010780040D0FFF7E5FF054690B1BFF35B8F1F4BEC
:1010880053E8001F013943E80012002AF8D1BFF3E2
:101098005B8F1B4C1B4EB44222D32846FFF7D6FF6A
:1010A800194B1A4C1B68002B0EDD05F0F5F9D4E935
:1010B8000032C01A40F2E93361EB0201984271F143
:1010C800000101D3FFF772FFD4E9003213F57A73F8
:1010D80042F10002C4E90032BDE87040FFF7BEBF2C
:1010E80063685B7923B1236829461B6820469847C3
:1010F8001034D0E770BD00BF640A0020DC07002070
:10110800C86A0008D86A0008D807002060050020CF
:1011180070B50D4D297861B90120FFF7B5FE0B4C6C
:101128000B4EB44206D3FFF79FFF0028FBD10123E3
:101138002B7070BD63685B791BB1236820469B6880
:1011480098471034EDE700BF650A0020C86A000818
:10115800D86A000800212DE9F0470846FFF794FEF9
:10116800044658B34FF032084FF0000905F040FA32
:101178001B4B1C4A1B58136033B11B4B1B68092BB4
:1011880002DD1A4802F00AFE194FDFF860A00025B8
:1011980044B12046FFF712FE044618B94FF0FF3855
:1011A8004FF0FF39FFF760FF064628B9B5B9424648
:1011B8004B46504602F016FE3546E9E74FF0FF3839
:1011C8004FF0FF39D2E72B689B691BB1002211460B
:1011D800284698471035BD42F5D3E8E7054DFAE7AC
:1011E80008000000D4070020DC070020CC00002005
:1011F800D86A0008C86A000813B5184804F042F90C
:10120800174B1B7873B1EFF31184102383F3128803
:10121800BFF36F8FFFF728FF84F31188BFF36F8F39
:1012280002B010BD0F4B1B68002BF9D050B900223B
:101238000023CDE900230C484FF47A72002303F011
:1012480025FBEDE70928EBD1074805F033F90748F6
:1012580002B0BDE8104002F0A1BD00BFDC070020CD
:10126800650A0020D407002068050020CC00002073
:1012780010B5064B1B68044698472146A0600448F1
:1012880004F032F8BDE81040FFF7B6BF04000020B4
:1012980080000020044A054B9B1AB1EBD30F34BFE2
:1012A80052F8310000207047706A0008C86A0008C8
:1012B800084BC31A10B41B114468013323714368E7
:1012C8009A7143681960436801225A7110BCFFF78C
:1012D80037BE00BFC86A00082DE9F04F8FB004AFD1
:1012E800C1F34A28B8600D4691467B600C0DB8F1F1
:1012F800000F63D0002607F114034FF0040B4FF0E2
:101308000A0AC7F80C80C7E907667E620193CDF820
:1013180008B0CDF800A007F11C03F968324648462A
:10132800FFF72AFBB0F5006F03461CD36C468AB062
:10133800D9F8041004AB2648C3E9050140F2FF714F
:10134800D9611A464FF400711984224B42F8103FB4
:10135800214833464FF41251FFF7BEFFA5462C37FC
:10136800BD46BDE8F08FC0F30A0804F11700184421
:1013780020F0070080083B60FFF75AFE68F353250A
:10138800044690B13B68154AC7E9083600F11001D8
:1013980007F11403F961CDE900A3CDF808B0F968A5
:1013A80007F11C034846FFF7E7FA68F353257B6803
:1013B800B9682A46204604F09FF8D0E704F11700E0
:1013C80020F007008008FFF733FE0446EDE700BF72
:1013D8004171000804000001906A0008D554000813
:1013E8002DE9F04F87B0DDE91279DDE9105A04469E
:1013F800039193469846BFB1CDF800903B465246BC
:1014080010210020CDF81490FFF7E4F8B0F5006F34
:1014180006460AD3184A194840F2FF73022107B05A
:10142800BDE8F04F04F0C1B83E4605F1170030445E
:1014380020F0070004F007048008FFF7F9FD0BF01F
:10144800070BE40044EA8B1444EA462444EA0554B2
:10145800054640B13FB1CDF800903B465246314673
:101468001030FFF7B7F8039943462246284607B0DD
:10147800BDE8F04F04F040B880710008906A000899
:10148800406820B1034BC01A40F3CF0070474FF0BB
:10149800FF307047706A00080EB403B503AB01460D
:1014A80053F8042B0448019300F08EFF02B05DF856
:1014B80004EB03B0704700BFFD550008CA0605D409
:1014C8008B064CBF02490349FFF7E6BF704700BFD0
:1014D800B9710008B87100082DE9F04F89B09B4632
:1014E800149B06939DF84CA0159B0593169B179E7D
:1014F800049304460D469046BAF1000F00F09D8013
:1015080006F48073079303F0DFFF06F00209024632
:1015180000283ED091492046FFF7BEFF0746B9F1A3
:10152800000F08D016F0440F35D18D492A462046C1
:10153800FFF7B2FF074406F0010353B1894B8A490C
:1015480053F82A20894B2046002A08BF1A46FFF77D
:10155800A3FF06F48073002B49D006F00803002B84
:1015680063D1B8F1000F66D0814942462046FFF7A3
:1015780093FF0546069B3D44002B6DD1049B002B31
:1015880073D1F30700F1E48031462046FFF796FF58
:10159800D8E00746C3E7774B18680028CAD0764BCF
:1015A8004FF47A791B68B5FBF3F54FF46161B5FB2D
:1015B800F0F300FB135509FB05F54FF03C0CB3FBAA
:1015C800F1F201FB1231B5FBF0FEB1FBFCF300FBBD
:1015D8001E550CFB131109FB05F50091B5FBF0F541
:1015E8006649CDE901E52046FFF756FFA2E706F078
:1015F8000803EBB1624B634953F82A202046FFF7F2
:101608004BFF0546B8F1000F05D059494246204620
:10161800FFF742FF0544BBF1000FABD05A495A46C9
:101628002046FFF739FF0544A4E74FF0000BE1E738
:1016380006F00805E6E745469CE7BBF1010F069B67
:1016480006D1002B64D1049B002B7BD000250CE035
:10165800002BF8D04D485CE04D48069B4D4922468A
:1016680003F046FC049B002B68D0DFF82C81DFF8E0
:101678002C91049F3146102F204628BF1027FFF7D2
:101688001DFF4FF0000B5D4545DC059B49461A7868
:101698002046FFF701FF4FF0010B1BF0070F03D1A6
:1016A80041462046FFF7F8FE5F453BD9059B494672
:1016B80013F80B202046FFF7EFFE0BF1010BBBF1EF
:1016C800100FEAD1364920464FF0000BFFF7E4FE31
:1016D8005A46059B9A5CA2F120015F2928BF2E2259
:1016E80030492046FFF7D8FE0BF1010BBBF1100F74
:1016F8001DD01BF0070F03D141462046FFF7CCFE53
:101708005F455A46E5D841462046FFF7C5FEEBE758
:101718001F485546A1E741462046FFF7BDFE0BF19D
:10172800010BB0E720492046FFF7B6FEC5E7059B49
:101738003B440593049BDB1B04939AD1BAF1000F39
:101748007FF41FAF204609B0BDE8F04F03F045BF56
:10175800064A05492046FFF79FFE15E7C0710008B5
:10176800C4710008046B0008AE770008BB7100085C
:10177800E9710008E8070020E4070020CD7100089F
:10178800186B0008ED710008F37100083356000863
:10179800FD550008D123000800720008F871000800
:1017A8000272000804720008FE71000873B542F264
:1017B8000F738B4228BF0B4605680F4A0446052164
:1017C800684603F0A3F863680C495B6806460B2279
:1017D800284603F0F4FE63683246694628465B688B
:1017E80003F0EDFE636806495B681B22284603F098
:1017F800E6FE02B070BD00BFF4770008237200084F
:1018080007720008074A00210123904206D8064AB9
:1018180001B901231360054B1860704740085B004D
:101828000121F2E740420F00E4070020E80700200A
:10183800F8B5074F0D4604464618B44201D128466C
:10184800F8BD14F8011BBB6801485B689847F4E7CA
:10185800B8670008014B036000207047606B000800
:101868002DE9F047064600AF0C46002936D0E94678
:101878008AB0D1E90012A3686D462148A8464FF006
:10188800050AC5E90501C5E9072348F810AF1D4851
:10189800424600234FF42151FFF71EFDCD46D4E9FF
:1018A80003126369AD461848C5F810A0C5E90501DB
:1018B800C5E907231348002342464FF42151FFF797
:1018C8000BFDCD46E369114A0E48012103F06DFE78
:1018D800A3690F4A0B48012103F067FE012E07D1C7
:1018E800EFF305830B4A0748103B314603F05DFED2
:1018F8002146304602F0AAF8BD46BDE8F08700BF91
:1019080069720008B06A000898720008C772000877
:10191800D67200080473000808B5034B1B68984783
:10192800BDE8084000F026B81000002030BFFFF7DF
:10193800FDBF00BF2DE9F0410B4EDFF8308006EB0C
:101948000807CC1B054632460949204604F031FEFB
:10195800A01942460021083C04F039FE2C6707F123
:101968000800BDE8F08100BF00000000040000008E
:10197800D86A0008074A936893F90E10002907DB14
:10198800526993421FBF044A536843F0805353601F
:10199800704700BF340A002000ED00E070B5294C04
:1019A80006460D462848294903F0AEFEA36AD90425
:1019B8003CD52548264903F0A7FE1720A36A1A0537
:1019C80004D52148234903F09FFE18201D4CA36A23
:1019D8009B0512D51C48204903F096FEA36BA26A0A
:1019E800100409D51D4A1848012103F0DEFD1EB177
:1019F800A36A23F40043A3621920124CA36A590571
:101A080004D51148164903F07FFE1A20A36ADA05A7
:101A18000ED50D48134903F077FE1B20094A936A37
:101A280043F47F43936200232B7070BD1620C5E7F3
:101A3800A36A9B04F2D504480B4903F065FE1C20F9
:101A4800ECE700BF00ED00E0B06A0008177300087B
:101A58002D7300083E730008517300086A7300086C
:101A68007F7300089A730008B273000810B5204C01
:101A78002049214803F048FEA36A990136D51E483B
:101A88001E4903F041FE1E20A36ADA0104D51A4854
:101A98001B4903F039FE1F20154CA36A1B0304D50C
:101AA8001548184903F030FE2120A36A590304D5CC
:101AB8001148154903F028FE22200D4CA36A9A0309
:101AC80004D50D48114903F01FFE2320A36ADB0348
:101AD80004D509480E4903F017FE2420044A936AE6
:101AE8006FEA03436FEA1343936210BD1D20CBE7EF
:101AF80000ED00E0E1730008B06A0008F97300081F
:101B08000C740008267400084474000869740008FE
:101B1800837400082DE9F843364D804689463648D7
:101B28003649174603F0F0FDAB6ADE0627D534497F
:101B3800314803F0E9FD1124AB6A1D0704D531498A
:101B48002D4803F0E1FD12242A4DAB6A980718D5F9
:101B58002D49294803F0D8FD6E6BAB6A190646D5A6
:101B68002A4A25483346012103F01FFDB9F1000F29
:101B780003D0AB6A23F08003AB62132403E0102484
:101B8800DAE76FF015061B4DAB6ADA0704D5204972
:101B9800194803F0B9FD1424AB6A9B0604D51D4906
:101BA800154803F0B1FD1524124B9A6AD50602D4E4
:101BB8009A6A90070AD55B68190507D541463046E9
:101BC80000F01EFA10B180F309880224094B9A6AC2
:101BD800920642BF5A6A22F400525A629A6A42F046
:101BE800FF029A6200233B702046BDE8F8836FF03D
:101BF8001506C2E700ED00E0B06A0008AE74000800
:101C0800C47400083E730008F77400080F750008D4
:101C180025750008B27300082DE9F041664B8AB0BB
:101C2800D3F8048000AF0446C8F30805002686F3FD
:101C38001188BFF36F8F02F07F43B3F17F4F07D155
:101C480002F00C03082B12D15C495D4803F05CFDDF
:101C5800002634460023FB71EB1E092B00F28A8014
:101C6800DFE803F00A80837D8888888888861007E3
:101C78004CBF0C460126EDE7524951484E4D03F042
:101C880043FD0023FB71EB6A9A0705D54E494C4882
:101C980003F03AFD002333E0EB6A002B01DA4B49ED
:101CA800F5E7EB6A5B00F5D54949454803F02CFD9B
:101CB8006B69A26943F480736B61BFF34F8FBFF305
:101CC8006F8F6B6932F8022C23F480736B61BFF35A
:101CD8004F8FBFF36F8F4DF602739A4209D0AB6AEC
:101CE800DBB27BB3FA1D01212046FFF713FF034641
:101CF80006E02368374A3248012103F056FC23687E
:101D0800FA79DAB907F1080504F1200C206861684E
:101D18002A4603C2083464451546F7D17A6A002E6C
:101D280044D0C2F3080121B96FEA52226FEA422275
:101D38007A6207F108011846FFF792FD2837BD4679
:101D4800BDE8F081AB6A13F47F4F04D0F91D012080
:101D5800FFF724FECBE7AB6AB3F5803F9AD3FFF7D2
:101D680085FEC4E7FA1D0021BEE7F91D0020EFE754
:101D780019498CE7194A1A4B18F4F87FE8468AB0D3
:101D880018BF13466A461749C2E905134FF4007392
:101D98001384103D144BD56142F8103F08480023C6
:101DA8004FF41151FFF798FAC54673E722F4FF7212
:101DB80022F00102BCE700BF00ED00E072750008E8
:101DC800B06A00089D750008B4750008D57500084C
:101DD800E3750008027600081E76000859750008A9
:101DE800447500084276000804000001024A53695D
:101DF80043F010035361704700ED00E0EFF30880F3
:101E0800EFF3098101B57246FFF706FF01BD00BF78
:101E1800102080F3118808484FF40461401880F3BB
:101E28000988EFF314800221084380F31488BFF374
:101E38006F8F00F0A5F80000C00D0020084B9B68CC
:101E480083420BD1EFF3058343B1064B5A6842F046
:101E580080525A605A6A22F400425A6204F0E1BA87
:101E6800340A002000ED00E0094A93686FF00A0187
:101E78009967084958674B6843F080534B600023C3
:101E880083F31188BFF36F8F9368986F704700BF13
:101E9800340A002000ED00E010B50446EFF311838A
:101EA800102383F31288BFF36F8F0A4B5869986029
:101EB800094B4FF000625A60084B026F1A6000220B
:101EC800436F426783F31188BFF36F8F00F000F907
:101ED800204610BD340A002000ED00E01008002064
:101EE8000B498A684FF030001044EFF3098C80E802
:101EF800F01F74467046FFF7CFFFA64604498A686C
:101F080002F1300090E8F01F8CF309887047000058
:101F1800340A00201EF0040F0CBFEFF30880EFF323
:101F28000980816911F8021C0229FFD001B503F06C
:101F3800E7FB01BD40B2002807DB044A4109012341
:101F480000F01F00834042F82130704700E100E0B4
:101F580040B20028A8BF00F1604001F10101B8BFFC
:101F6800064B4FEA0111ACBF00F5614000F00F00CD
:101F7800C9B2B4BF195480F80013704714ED00E0DB
:101F88000F4A08B50F4B22F07F029A60BFF34F8FBC
:101F9800BFF36F8FD3F8882022F47002C3F888202B
:101FA800EFF3148323F0040383F31488BFF36F8FD4
:101FB80001F038FE02F094FA00F060F801F080FEBB
:101FC8000000000800ED00E042F8203C009B42F8C9
:101FD8001C3C0A49019B42F8183C029B42F8143CFD
:101FE80021F001014FF0807342F8043C42F8081CCC
:101FF8000023203A02654367704700BF4D0D000873
:10200800094A0346906870B113F1160F006E05D0A7
:10201800A0F140029A4205D8834203D2814228BFE8
:102028000020704700207047340A002008B5154684
:102038000B4A0C4B9060026F1A600E4600F048F88D
:102048002C4686F309884FF00000074B9847204636
:102058004FF000014FF000024FF00003034C2047FF
:10206800340A002010080020215700084D0D0008F0
:10207800014B10221A61704700ED00E0044800236C
:102088001021C2180133522B82F80013F9D170477E
:1020980000E100E008B5EFF30583064A103B02EBC8
:1020A800C30152F8330049688847BDE80840FFF784
:1020B80061BC00BFE0670008024B034A03480121E6
:1020C80000F08AB80000022000000020606B0008C1
:1020D800026E054B403A1A60044A4021C3E90112D6
:1020E8001846012100F082B81408002000000B15E2
:1020F80008B503461048D0F89020C2F30722013AE9
:10210800934207D90D480E4A012103F04EFA6FF0A9
:10211800150008BDC0F898300A6822F01F021A435B
:1021280042F01002C0F89C208A6842F00102C0F810
:10213800A0201846EDE700BF00ED00E0A86A0008FF
:1021480059760008F0B50E4685B01F4604460025AE
:10215800B5420DDA606810B397B1431E18420AD031
:10216800104A11482B46012103F01FFA6FF015029F
:10217800104605B0F0BD1F28F2D921680B42EFD1F7
:102188002368019303F0DCFAA36801A90343D0B2E2
:102198000393FFF7ADFF10F1160FE7D0421C01358E
:1021A8000C34D5E77F760008A86A0008044B05229E
:1021B800C3F89420BFF34F8FBFF36F8F704700BFF2
:1021C80000ED00E0BFF35F8F024B0022C3F89420BC
:1021D800704700BF00ED00E010B5034C01232278E2
:1021E800FFF7B0FF207010BD670A002008B50B4A42
:1021F80000231278FFF7A6FF10F1160F07D0084A40
:102208000021D2F89030C3F30723984200DB08BDC1
:10221800C2F89800C2F8A0100130F2E7670A00205F
:1022280000ED00E02DE9F04357485849D0F89030C8
:102238000D68C3F307239D4285B000F2A180FFF724
:10224800C1FF49680022954201F10C011AD1504C96
:10225800504F25706846FFF7FDFADFF83C81DFF83C
:102268003C9106460025AE421FD1237846490020FE
:10227800D1F89020C2F3072293427BDBFFF796FF49
:1022880000204CE0C0F8982051F80C3C23F01F03C4
:10229800134343F01003C0F89C3051F8043C43F05A
:1022A8000103C0F8A0300132CDE7009800EB05111A
:1022B8004FEA051CCB683B40B3F5000F44D00AD861
:1022C800B3F5001F2ED0B3F5800F34D0B3F5801FBF
:1022D80010D00135C7E7B3F1807F3ED0B3F1007F5E
:1022E800F7D150F80C3088684A6803F029FA40F4AE
:1022F800802009E050F80C3088684A6803F020FA1A
:1023080040F0885040F43020039001A92078CDE9AE
:102318000123FFF7EDFE002828DA6FF0150005B05D
:10232800BDE8F08350F80C3088684A6803F008FA72
:1023380040EA0800E8E750F80C3088684A6803F07B
:10234800FFF940EA0900DFE750F80C3088684A686E
:1023580003F0F6F940F08270D6E750F80C30886840
:102368004A6803F0EDF940F08870CDE7237801332F
:102378002370AEE7C1F89830C1F8A000013377E7C1
:102388004FF0FF30CBE700BF00ED00E06C6B0008BA
:10239800670A00200000F0FF000008110000020793
:1023A80008B5024B1B689847002008BD200800208C
:1023B800034B044A1860937843F002039370704704
:1023C8002008002014000020F0B587B007460E460C
:1023D80014460021102268461D4604F0F8F802232E
:1023E8008DF802302A46054B019321466846CDE90F
:1023F800047602F0B7FA07B0F0BD00BF69570008CD
:1024080008B50649064821F00701C1F1005202F556
:10241800003202F030FD002008BD00BFC71B0020BD
:10242800240800202DE9F0410F4E104F05460024E6
:102438004FF001082B7853FA84F01F280DDC7269DD
:1024480008FA00F333EA020207D1736157F8303013
:102458001BB107EBC002516898476A780134E3B2B0
:102468009A42E7D2BDE8F081003C014030080020E4
:10247800044B184400230133994200F8012BFADC7D
:10248800704700BF5000002010B4064B06490246B2
:102498000C6818560123934023430B6010BCFFF7C8
:1024A80049BD00BF50000020003C01401F2806DC49
:1024B800034901220B68824023EA02030B6070473C
:1024C800003C014003292AD8DFE801F0020E141F5E
:1024D800134B01229968824021EA02019960D96868
:1024E80021EA0202DA6070470D4B012299688240A6
:1024F8001143F3E70A4B0122D96882401143D9609E
:10250800996821EA02029A607047012303FA00F0F1
:10251800034B9A6802439A60DA681043D8607047A0
:10252800003C014030B50A4B53F830408C4204D18E
:1025380003EBC0056D68954205D034B943F83010F7
:1025480003EBC0035A60002030BD6FF00F00FBE7BB
:1025580030080020034B002243F8302003EBC0036F
:102568005A6070473008002010B51D4B18680B687A
:10257800302B14460BD00DD85A1E042A11D8023B12
:10258800032B04D8DFE803F00228161E0020206081
:10259800002010BD402B0BD006D8342BF7D0382B99
:1025A800F5D06FF08500F4E7442B09D0A82BF7E7A6
:1025B8008008ECE700F0A4F84FF4A873C00858436B
:1025C8004008E4E700F09CF84FF4A873C0085843AB
:1025D8000723B0FBF3F0DAE74FF4FA40D7E700BF80
:1025E80044000020F8B5424F424C00F09FF83846AE
:1025F80003F07EF901F038F9A3683F4AC3F30313E7
:102608001578D35C47FA05F520FA03F6AE4202D2F4
:10261800284601F099F9236823F48023236023686E
:1026280043F480332360334B1A689203FCD55A6F06
:1026380042F001025A675A6F9407FCD59A6802F073
:102648000C02082A17D11A68900707D41A6842F0B2
:1026580001021A60274A13689907FCD5254B9A6826
:1026680022F003029A609A6812F00C0FFBD19A6864
:1026780022F0F0029A601F4C236823F080732360D5
:10268800636823F440336360636823F0706343F046
:10269800E063636000F038F8236843F080732360D8
:1026A80023689B01FCD5A36823F0F003A360A3680B
:1026B80023F0030343F00203A3600E4CA36803F066
:1026C8000C03082BFAD1AE4202D3284601F03CF99C
:1026D8000A4B1F60A36823F4E05343F4A053A3609C
:1026E800A36823F4604343F40043A3600020F8BDCB
:1026F800007A030A00380240507B0008440000209A
:102708000048704700127A00054B06495A68114084
:10271800054A0A435A605A6822F440325A607047A0
:10272800003802400080BFFF08544000064B1A6C76
:1027380042F080521A641B6C82B003F080530193FC
:10274800019B02B0704700BF0038024008B5074837
:1027580003F04AFD38B10648FFF72AFE0448FEF7A1
:10276800EBFA002008BD6FF01200FBE7B86700081D
:102778007D2700080A2838B5074D044604D1AB6800
:102788000D215B6828469847AB6803485B68E1B24F
:102798009847204638BD00BFB86700082DE9F041CA
:1027A80043681446D3E904828A4213D91C25084693
:1027B8009E694D4300F04EFB084B1B5C4344771960
:1027C8005B689BB2636073596370BB7923700020A8
:1027D800BDE8F0816FF01500FAE700BF3F79000807
:1027E80070B5054646681A4C204603F0FDFC40B912
:1027F800184A1948012103F0BFF86FF01204204667
:1028080070BDA36820461B6831469847044638B116
:10281800124A1148012103F0AFF86FF00404EEE703
:10282800B3682846984723461C212046726993427C
:1028380007D32A69002313602A6953602A699360C1
:10284800DDE7B26901FB032201339071EEE700BFB7
:10285800B4660008EA760008806A0008097700086C
:102868002DE9F04F93B000AF436838604FF01C0972
:1028780007F10C00D3F818B01E697B600D4692462C
:1028880009FB01F903F09EFC7B685A69AA420BEB2D
:10289800090407D89E492A469E4803F06FF86FF04E
:1028A800150808E0A2795AB19B492A46994803F0CD
:1028B80065F86FF00F0840464C37BD46BDE8F08F0D
:1028C8002946304603F05FF8804610B193492A46FE
:1028D800ECE73B682946586803F069F8BAF8022023
:1028E80002F47E62B2F57E6F0BD10122A271627191
:1028F800DAF818206261DAF81430236184F8188055
:10290800D9E7DAF810104A69B2F5803F01D3844953
:10291800C2E79AF8012052071AD17B68187BB8B928
:102928003B686C4688B01B686A467E49C2E9051355
:102938004FF4007393837C4B42F8103F4FF4E251FD
:1029480003467448FEF7C8FCA5466FF08508B2E751
:10295800BAF80400BAF80620824205D0734A6D48D6
:10296800012103F009F89AE7042A04D0501E01282F
:1029780001D96F4990E70A7FC2F38011B1EBD21FEA
:1029880001D06C4AEBE70122A271DAF818206261E3
:102998009AF8012002F007024BF80920DAF814200F
:1029A8002261BAF80420A260BAF80620E260DAF8D8
:1029B8001020127FC2F380122276DAF810201268F3
:1029C80022B95D4A5348022102F0D6FFDAF81020F6
:1029D800526822B9594A4F48022102F0CDFF5BF8EC
:1029E8000900DAF8101001280A6807BF3A614A6836
:1029F800FA604A680CBFFA603A61DAF80020C2F35C
:102A0800C332032A14D8DFE802F0150217104FF476
:102A180080327A639AF8012002F00702012A0ED068
:102A2800022A1CD01AB3464936E74FF44032F0E781
:102A3800444931E70022ECE74FF40032E9E740224D
:102A48007A610A7FC2F38101C2F3011201293FF4BE
:102A58007CAF02290DD0C1B13B4903221CE70022FB
:102A68007A610A7FC2F30111C2F38102EEE7802284
:102A7800F6E70021012A39623FF467AF022A07D03E
:102A8800002A41D03149032206E74FF48061F1E77B
:102A98000022FA61227E1202BA615BF80920931EB5
:102AA8005A425A412271BAF80410002991FAA1F247
:102AB800B2FA82F2264908BF4FF0FF32504651F869
:102AC8002220BAF806107A62002991FAA1F2B2FA25
:102AD80082F2204908BF4FF0FF3251F82220BA6233
:102AE800217900F0EDFA38642179504600F00AFBAC
:102AF8009AF80120786412F007099AF800202DD07E
:102B0800072A34D9144A2AE74FF40072C1E700BFF4
:102B18001A770008806A00083E7700085577000891
:102B2800767700088D77000803000001B177000868
:102B3800D3770008F77700082D7800084C7800084C
:102B48007C7800086978000890780008AB7800085D
:102B5800E86B0008F46B0008C6780008072A06D955
:102B6800384A3948012102F007FF8AF800909AF89C
:102B7800000000F075F9DAF810203863507F00F093
:102B88000F0000F0E1FAF86307F10C0003F099F880
:102B98008000B8632179DAF8102000293CD0BAF80F
:102BA80004105369B3FBF1F32846FB6200F052F9B5
:102BB80007F10C020146304600F084FE284600F07A
:102BC80049F9DFF8889019F80020935943F0100369
:102BD8009351237E43B1284600F03CF919F80020B0
:102BE800935943F008039351BB6B042B284616D125
:102BF80000F030F919F80030334428465A6942F099
:102C080004025A6100F026F919F8003033445A6971
:102C180042F080025A614EE6BAF80610C1E700F0A9
:102C280019F919F80030334428465A6922F0040289
:102C38005A6100F00FF919F8003033445A6922F04C
:102C48008002E7E7D6780008806A00083F79000824
:102C5800F8B543689F69D3E904538B4206460C468E
:102C68001FD9284600F0F4F9C8B1204600F0F2F860
:102C78000D4B1A5C535923F0100353512146284633
:102C880000F00EFA7068214602F091FE21462846AF
:102C980002F079FE1C2303FB04770023BB7100209C
:102CA800F8BD6FF01500FBE73F7900082DE9F0410A
:102CB80006464068846907691C2303FB01440D46E6
:102CC80063792BB9A3791BB9BDE8F04102F06FBE57
:102CD8000023A3712946384600F06CF970B1637976
:102CE8001BB92946384600F0C1F8676901232169F4
:102CF8002A463046BC46BDE8F0416047294638467A
:102D080000F042F940B163791BB92946384600F012
:102D1800B3F867690023EAE72946384600F060F906
:102D280040B10C4A0C48012102F026FE67696FF099
:102D38000403DCE7094A0848012102F01DFE736814
:102D48002946186900F0ECF87068294602F02FFE51
:102D5800ECE700BFFF780008806A000818790008CF
:102D68002DE9F84F994643689246D3E904528A42BE
:102D78000C4613D94FF01C0B28469F690BFB01FB2F
:102D880002F001FE07EB0B08064600285DD157F854
:102D98000B30012B07D033F0020333D06FF0150648
:102DA8003046BDE8F88F204600F054F8DFF8A0B0B0
:102DB8001BF800302B442046C3F80CA000F04AF85A
:102DC8001BF800302B44C3F8089098F80430DFF85B
:102DD800809020464BB300F03DF819F80010D8F861
:102DE80008300A98B0FBF3F329444A68120C12041D
:102DF80013434B60012388F806302146284600F02B
:102E080019F9CDE7204600F025F8DFF844B01BF8A3
:102E180000302B442046C3F808A000F01BF81BF82C
:102E280000302B44C3F80C90CFE700F013F819F8E2
:102E38000020D8F80C100A98B0FBF1F72A44536820
:102E48001B0C1B041F435760D4E76FF00F06A7E75E
:102E58003F790008014B53F820007047606D000867
:102E6800014B53F820007047406D0008014B53F8A0
:102E780021301847206D0008014B53F821301847BE
:102E8800006D000808B5044B53F821309847003806
:102E980018BF012008BD00BFE06C000808B5044B4E
:102EA80053F821309847003818BF012008BD00BFEB
:102EB800C06C0008014B53F821301847A06C00087B
:102EC800014B53F821301847806C0008014B53F828
:102ED80021301847606C000808B5044B53F82130BE
:102EE8009847003818BF012008BD00BF406C000893
:102EF80008B5044B53F821309847003818BF012013
:102F080008BD00BF206C000808B5044B53F82130F9
:102F18009847003818BF012008BD00BF006C0008A2
:102F28002DE9F04700AF04460D46FFF7B7FF2946E5
:102F380082462046FFF7A6FF294681462046FFF72E
:102F4800CBFF294680462046FFF7D2FF2946064692
:102F58002046FFF7D9FF8CB06A4609490723C2E922
:102F6800051AC2E90798C2E9096042F8103F054806
:102F780000234FF46351FEF7AFF9BD46BDE8F08773
:102F880047790008886A0008084A10B552F82120D5
:102F9800074CA25C835813F0100304D0FFF77EFFA0
:102FA80000F0010010BD1846FAE700BF606D000888
:102FB800257A0008084A10B552F82120074CA25C6F
:102FC800835813F0080304D0FFF75CFF00F00100FA
:102FD80010BD1846FAE700BF606D0008257A0008A2
:102FE800104B114A53F8213070B5D35C03440546A1
:102FF8005B691B060E4602D40024204670BDFFF70D
:1030080083FF04460028F7D0084A0948012102F046
:10301800C3FA31462846FFF783FF3146284602F0B7
:1030280041FEEAE7606D0008257A00086F7900081C
:10303800886A0008044B054A53F82130D25C83584B
:1030480043F0010383507047606D0008257A00083B
:10305800044B054A53F82130D35CC05800F00100F6
:10306800704700BF606D0008257A000838B50A4B24
:103078000A4A53F82130D25C835823F00103835065
:1030880004462046FFF7E4FF05460028F9D120460C
:10309800FFF7F2FE284638BD606D0008257A000863
:1030A800054B064A53F82130D35C1844436923F092
:1030B80080034361704700BF606D0008257A0008EF
:1030C80008B571B14389082B12D00CD8012B06D052
:1030D800042B10D0094A0A48012102F05DFA0020A9
:1030E80008BD0389EFE7102BF4D14FF0C070F7E764
:1030F8004FF08070F4E74FF40000F1E77B790008A7
:10310800886A000808B571B10389082B12D00CD859
:10311800012B06D0042B10D0094A0A48012102F0DD
:103128003BFA002008BD4389EFE7102BF4D14FF498
:10313800C000F7E74FF48000F4E74FF40010F1E720
:10314800B1790008886A000808B5032807D8DFE8BD
:1031580000F00B020D04012008BD0320FCE7044A1F
:103168000448022102F018FA0020F5E70220F3E7EC
:10317800EB790008886A000838B503690446586086
:10318800084D284603F030F840B16168AB680C314F
:103198001B682846984700EAE07038BD6FF01200B7
:1031A800FBE700BFB4660008F7B50C461146B1F559
:1031B800001F476802691D4624D104F00302043247
:1031C80092000F23934043EA9403DAB2344902325F
:1031D80051F82220190C02EA134391FAA1F2B2FA2B
:1031E80082F2D340BA689A4209D12046FFF75EF9C5
:1031F8002046FFF7AFF900212046FFF763F90020CA
:1032080003B0F0BDB1F5800F41D026492046FFF745
:1032180089F900283ED1B5F1806F34D0B5F1C06F7F
:1032280033D0B5F1007F38D102261F4ABD6892E835
:1032380003006B4683E803001C488268194612683D
:103248009047C0B904F0030304339B000F229A404F
:1032580042EA9402D3B29B0003F1804303F59C3306
:10326800110C986820EA124091FAA1F2B2FA82F29F
:10327800954005439D6020463146FFF723F92046D7
:10328800FFF702F9BBE70126CFE70326CDE76FF08A
:103298008500B5E76FF00F00B2E76FF01500AFE7F4
:1032A800003801402B5F0008D86A0008B46600089F
:1032B8002DE9F0471E4F044600EBC1060025B44235
:1032C80001D1002014E02068C30600F01F0911D4C2
:1032D800656845F02005C0F3481AC0F344200F285C
:1032E80023D857F82080B8F1000F0DD16FF01200E5
:1032F800BDE8F087B9F1100F04D0B9F1110FEAD188
:103308006568E8E73025E6E7404602F06DFF0028EB
:10331800ECD04B462A460AF00F01404602F018FE50
:10332800002804F10804CADAE2E76FF01500DFE7C5
:10333800586E0008024A0348012102F02DB900BF67
:10334800BC7A0008C06A0008F8B503690C465E68D4
:1033580023794168012B34D09A1E55425541AD025C
:103368006279022A9CBF354F37F812C0A27988BF0C
:103378004FF4005C042A27D0003B18BF01231B032D
:10338800E279012A0A680CBF4FF440770027A64269
:10339800D1681CD121F4B05129430B43D360136980
:1033A80023F4405343EA0C03136143681A685369D2
:1033B80023F440733B4353613168BDE8F84002F0A1
:1033C800D5BE4FF4C065CBE74FF48053D8E701F47E
:1033D800C0618D421FBFD16821F4C0612943D1600B
:1033E800426811680A6902F4405294451FBF0A698D
:1033F80022F4405242EA0C020A6142681168CA6823
:1034080002F4805293421FBFCA6822F480521343C9
:10341800CB6043681A68536903F440739F421FBF27
:10342800536923F440733B435361216833689942DD
:1034380003D002F09BFE23683360F8BD846F000858
:10344800F7B50469466805462E48206002F0CCFEB0
:1034580048B92D4A2D48012102F09EF86FF0120458
:10346800204603B0F0BD2068F16883681B68984760
:103478000446E0B9306A01AA002102F081FD041E69
:10348800EEDB019B002219791868FFF711FF041E73
:10349800E6DB6E682B6934685F68E36823F40053E1
:1034A800E360706802F0A0FE48B9194AD2E7194AE9
:1034B8001648012102F070F8002CD1DBDAE7D6E9D2
:1034C80001018368DB6803B1984704F10C0353E8F2
:1034D800003F43F00C0304F10C0141E80032002ADC
:1034E800F3D139462846FFF72FFF337D1BB16369B7
:1034F80043F008036361E36843F40053E360002486
:10350800AEE700BFB4660008EA760008C06A0008A3
:103518000A7B0008EA7A00082DE9F04143681D6833
:103528000369D3F804800B790C46012B4979A679F5
:1035380037D1022950D9042E4BD04FF480574FF47D
:10354800C06203238B4244D1002F7DD0002A14BFD0
:1035580003220422B2423CD1E37983B1012B38D152
:103568003C4B9D420BD0A3F54C439D4207D003F53D
:1035780080639D4203D003F54C439D4229D1EB68FB
:1035880023F40053EB602146FFF7DEFEEB6843F4BB
:103598000053EB6094E8030088E803000020BDE8CE
:1035A800F081022B08D1022921D9042E11D04FF421
:1035B80080624FF48057C4E702290A461FD9042EB7
:1035C80004D133B94FF480571A46BAE763BB0329CD
:1035D800C0D06FF08500E2E71F4A042E32F811C010
:1035E800F7D04FF4C062033B012B10D8F1E71A4A19
:1035F800042E32F811C0ECD04FF48062F3E7164A7B
:10360800042E32F811C016D1002BE2D11A464FF41D
:103618008057BCF5805F13D0BCF5405F12D0BCF179
:10362800000F8ED101238DE7033B012BD1D9002256
:10363800BFE70022D7E7002BFBD11A461F46E8E771
:1036480000237FE702237DE7002A14BF022203221A
:1036580080E700BF00100140846F000810B54FF0EC
:10366800E0230F499C691A6908689B690D4902F4AF
:10367800803234B993B903464AB90A681044C01A6B
:1036880010BD002B08BF03460AB9A342F5D90A6842
:1036980002440A604FF0E0221269EEE70446F3E7BD
:1036A800300A00202C0A0020094B102283F823201E
:1036B800084B094A1A60094B002018604FF0E023B4
:1036C800013A5A6198611A6942F007021A61704713
:1036D80000ED00E0300A0020409002002C0A002093
:1036E80010B5FFF7BBFF0F4B0F49D3E9004208683D
:1036F800001942F10002C3E900020C4A00230B60E2
:10370800D2E900410A4B001BB0FBF3F043431B19FD
:1037180041F10001C2E9003100F0C8FFBDE81040E6
:10372800FEF728B9A80500202C0A0020A0050020D3
:10373800409002002DE9F041DFF8D88099B1421C91
:103748000BD14FF0E022136923F0010313614FF00E
:103758007F43C8F80030BDE8F081D8F80060012840
:1037680006DC002708E0431CD8F80060F7D1622087
:103778006328A8BF6320471EEFF31185102383F346
:103788001288BFF36F8FFFF769FF234C4FF0E023D8
:103798009969D4E90023801843F10003C4E90003C0
:1037A8001E4B00221A601E4B1A68831A2ED4DFF8AB
:1037B80074C00CFB073303F524333F33B3FBFCF72A
:1037C800131A0CFB073342F60412934238BF134610
:1037D800154A934228BF13464FF0E022C8F800303C
:1037E800013B90695361002393618142A1EB00037F
:1037F800D4E9001238BF9B195B1842F10002C4E9F2
:10380800003285F31188BFF36F8FA4E742F60413E3
:10381800E2E700BF300A0020A80500202C0A00209B
:10382800A0050020409002008038FB0038B5EFF377
:103838001185102383F31288BFF36F8F074B1C6821
:10384800074B1B68E41AFFF709FF85F31188BFF3DC
:103858006F8F044B2044B0FBF3F038BDA80500205F
:10386800A00500204090020008B513498B6803F0BA
:103878000C03042B1CD0082B1CD14A684B684968E0
:1038880013F4800314BF0D480D48C1F3881118BF05
:10389800002302F03F02A1FB0001FCF771FC064B7C
:1038A8005B68C3F3014301335B00B0FBF3F008BD71
:1038B8000248FCE70248FAE70038024000127A00A2
:1038C8000024F40070B51F4B595CD2E9023633432B
:1038D8001669455833435669334396693343D66965
:1038E8003343966A25F45F35334325F478752B43C3
:1038F8004350D36A441893B16569166B25F00705E0
:1039080033432B4363614358556B23F0C0732B43F8
:1039180043504358956B23F4C0032B4343505368DB
:10392800E3601368A3606368156A1B0C1B042B43D0
:1039380063604358526A23F0606313434350002086
:1039480070BD00BF607B000800285ED0304A136855
:1039580013F4804338D02F4B984215D913685B0471
:1039680049D505232C490A6822F007021A430A6040
:103978000A6802F0070293421CBF0A6802F00702B5
:10398800981A18BF01207047244B984204D913682D
:10399800580436D50423E5E7214B984204D9136827
:1039A800590430D50323DDE71E4B984207D81E4B38
:1039B800984213681DD95A041FD50123D2E713680A
:1039C8005B041CD50223CDE7126812F48042C9D1EA
:1039D8001249884215D81249884214D81149884298
:1039E800F0D811498842BDD9012A134638BF0123AE
:1039F800B8E70023B6E70522F6E70122F4E702223A
:103A0800F2E70422F0E70322EEE70120704700BF47
:103A18000070004080D1F008003C0240000E2707EB
:103A2800804A5D050087930380C3C90110B5044629
:103A3800FDF76EFB0348044A012101F0ADFD204665
:103A480002F0DDFBB06A0008687B00082DE9F84346
:103A5800044600AF0D46EFF31188102383F3128854
:103A6800BFF36F8F0428294A98BF294B9668117CA9
:103A780094BF53F82030274BE9468AB06A46264857
:103A8800C2E9073140F201339384244BC2E90504AB
:103A980042F8103F224800234FF43151FDF71CFC37
:103AA800CD4645B1EB69C3F3080323B11D4A1C4851
:103AB800012101F071FD2EB1304602F0E5FB08B19D
:103AC800037803B91848E9468AB06A46174BD061AB
:103AD800C2E9053640F201331384154B42F8103F12
:103AE80000230F484FF41151FDF7F6FB2946CD4648
:103AF8002046FFF79BFF88F31188BFF36F8F30468E
:103B0800FEF79CF9BD46BDE8F88300BF340A0020E3
:103B1800586F0008777B00088D7B000805000001BE
:103B2800B06A0008B57B0008857B0008D67B0008D2
:103B38000400000138B5094B53F82040013053F810
:103B48002050A54200D838BD636823B1204602F052
:103B58005EFB0834F5E723689847FAE76C6F0008BE
:103B680070B52B4B2B4C2C4D012286B003201A70BC
:103B7800FFF7E0FF00F0C4FE02F065FB0420FFF74A
:103B8800D9FF2646AE4204F1300410D300F04AFBB8
:103B9800204C224EAC4226D300F058FBFCF77EFCAA
:103BA8001F4A137B23F00103137306B070BD54F84A
:103BB8000C3C059354F8103C049354F8143C0393BC
:103BC80054F8183C029354F81C3C019354F8203CD8
:103BD800009354E90A2354E90C0100F029F954F838
:103BE800303C5E65CDE7D4E90A23B3F1FF3F08BF57
:103BF800B2F1FF3F05D052EA0301206803D102F079
:103C080045FB3034C6E73146183000F0D5FCF8E7FC
:103C1800680A0020706A0008706A0008C16300081A
:103C2800300600200648074A08B5121A002102F09B
:103C380006FB0548054A0021121A02F000FB08BDE0
:103C4800E00000206C0A00200000001000000010B6
:103C580070B5002386B00122CDE90423134E144D1C
:103C680001930F22CDE902321249142303FB0055B8
:103C780006EBC01604464FF4C07000FB04110E4B4F
:103C880000954FF4A072304600F0D2F8737B0B4ACF
:103C9800EE6023F0040373734FF4046304FB0333EF
:103CA80013442C746B6006B070BD00BFB0050020D3
:103CB800340A00200016002051620008C00D0020C0
:103CC800BFB50020FFF736FF2C4B83F308882C4D37
:103CD8002C4E6B692C4F43F400736B610024F02366
:103CE80085F82230EC772C766C76AC7685F8204017
:103CF8006B6A43F4E0236B62FEF778F8FEF7B8F9D5
:103D08004FF0FF33AB62EB62FEF78CFAFEF7D4F9A3
:103D1800FDF774F91D4BB36040F201129A81C3E9B3
:103D28001844DC6602F05FFA0120FFF703FF022067
:103D3800174DFFF7FFFE00F0A9FA164B75610593C2
:103D4800012315490094CDE903434FF480623B46B3
:103D5800CDE90144284600F06BF86A7B064622F05C
:103D6800040228466A7302F0CDFA2046FFF770FF76
:103D78003A4631462846FEF759F900BF001600209A
:103D880000ED00E0340A0020693B0008B00600207E
:103D980030060020387C00088017002038B504461B
:103DA800EFF31185102383F31288BFF36F8F02F0AE
:103DB8001DFB48B10022826702F0A4FA2946084890
:103DC800BDE8384000F0EAB9D4E902329A4218BF97
:103DD8000133A36085F31188BFF36F8F38BD00BF2F
:103DE800690A002013B5EFF31181102484F31288B7
:103DF800BFF36F8F846844B1013C846081F31188FC
:103E0800BFF36F8F002002B010BD52EA030406D141
:103E180081F31188BFF36F8F6FF00F00F3E7CDE9DF
:103E280000230246014800F08DF9ECE7690A0020FA
:103E38002DE9F043073285B022F007020E461F46EF
:103E48001099017300F158037F32C0E91633044614
:103E5800002322F03F020421836041733F2A0F9818
:103E6800A073C4E90633E37306F14009A2F14008E0
:103E780005D883F31188BFF36F8F084602DFB518A2
:103E880029462046FDF756FD07300E9B20F0070017
:103E9800A066C4E9189802930D9B01932D1A0C9BF8
:103EA80000932A463B4631462046FEF78DF800230C
:103EB8006365044B9B6803B1DB6EE366284605B077
:103EC800BDE8F083340A0020F0B587B000250595D9
:103ED800109D04950F9D03950E9D0295DDE91276C0
:103EE8000D9D01950C9D00950446FFF7A1FFB6F1C5
:103EF800FF3F08BFB7F1FF3F05D056EA070305D1DA
:103F0800204600F05DF9204607B0F0BD03493A4667
:103F1800334604F1180000F04FFBF4E7C1630008D2
:103F280038B50D4D2B4653F8184F9C4200D004B9B4
:103F3800EC68AB6838B95A7BD20604D1A26912B9C9
:103F4800DA897F2A05D89C4202D0204600F070FA10
:103F580023466B6138BD00BF340A002008B590F9CC
:103F68000D20437B002A014604DA03F07F034373E4
:103F780002F08EF9044B9868431A58425841BDE83C
:103F88000840FFF7CDBF00BF340A002070B490F995
:103F98000D30427B002B29DBD30627D183692BBB4D
:103FA800134962F07F0242730A4652F8184F94424E
:103FB80018BF2346CC6923B9C0E900242060C86132
:103FC8000CE090F90E5093F90E60B5420AD0AE425B
:103FD80008DD5A68C0E900321060586070BC0020E3
:103FE800FFF79EBF9C42E7D01B68E4E770BC7047B0
:103FF800340A00202DE9F041002A427B0E460CBF0E
:1040080010210821114204460FD141EA0203D209C6
:1040180018D1437308291BD00120FFF781FFBFF394
:104028005F8F637B23F060036373274B9B68A34216
:1040380043D1EFF30583002B3FD13046BDE8F04173
:10404800FDF712BF03F07F03437302F021F9E1E7A4
:10405800A36813B1204602F023F904F1180002F016
:1040680002FAA56D04F15807AF4211D04FF00008CD
:1040780075B1284602F014F905F1180002F0F3F9B9
:10408800C5F878802846FFF781FFA56DAF42EFD1CC
:104098000D4DAB689C42BFD1EFF30583002BBBD01D
:1040A8000120FFF73DFF094BAB6040F201129A81F6
:1040B8000022C3E91822DA66B1E786F31188BFF354
:1040C8006F8FBDE8F08100BF340A0020B0060020E1
:1040D80070B590F90D20437B002A014604DA03F0FD
:1040E8007F03437302F0D4F84B7B154A63F07F03D8
:1040F80010464B7350F8183FD469834208BF002319
:1041080023B9C1E900042160D1610CE091F90E5096
:1041180093F90E60B5420ED0AE420CDD5868C1E985
:104128000030016059609068431A5842BDE87040F9
:104138005841FFF7F5BE9C42E3D01B68E0E700BF9B
:10414800340A0020F8B5124B0C461146114A9868FB
:104158001060DDE90676EFF31182102282F31288EF
:10416800BFF36F8F9D68284602F0A4F8B6F1FF3FB1
:1041780008BFB7F1FF3F06D007493A46334605F175
:10418800180000F019FA2046BDE8F840FDF76CBEAB
:10419800340A0020540A0020C163000849B9EFF32B
:1041A800058030B9054B5A699B689A4201D0FDF7E2
:1041B8005BBE81F31188BFF36F8F7047340A00200C
:1041C80010B5EFF31184102282F31288BFF36F8FBA
:1041D800427B510704D484F31188BFF36F8F10BD5D
:1041E80022F004024273FFF7D1FE21460248BDE8DF
:1041F8001040FFF7D3BF00BF690A0020034648B943
:10420800EFF3058232B9064A51699268914201D0AA
:10421800FDF72ABE83F31188BFF36F8F704700BF85
:10422800340A0020EFF31181102383F31288BFF3BF
:104238006F8F054B9A68D37B013BD37381F3118849
:10424800BFF36F8F704700BF340A002038B5EFF313
:104258001185102484F31288BFF36F8F0A4B9A6874
:10426800D37B0133D3730020FFF75AFE85F31188FF
:10427800BFF36F8FEFF3118084F31288BFF36F8F52
:10428800BDE83840FFF7BABF340A0020024B03F1FB
:104298001802C3E906227047340A0020F8B5EFF384
:1042A8001185102383F31288BFF36F8F194988682B
:1042B800437B03F07F03437301F0EAFF8B685A7B6B
:1042C800084662F07F025A7350F8182FCC69824270
:1042D80008BF002222B9C3E900042360CB610CE0C7
:1042E80093F90E6092F90E70BE420ED0B7420CDD03
:1042F8005168C3E900210B6053600120FFF710FEED
:104308002846BDE8F840FDF7AFBDA242E3D01268E9
:10431800E0E700BF340A002050EA01032DE9F0412C
:1043280005460E4603D1FFF7B9FF00202BE0831C9A
:1043380071F1FF3329DB02F0ABF82C18EFF3118889
:10434800102383F31288BFF36F8F124F124BB86894
:104358001860FFF703FEB86810492A46334618303C
:1043680000F02AF9BA68537B43F0100353734046B0
:10437800FDF77AFD02F08CF8201A63EB030301289D
:1043880073F10003D1DBBDE8F0816FF00104241A5A
:10439800D4E700BF340A0020540A0020C163000893
:1043A800B1F1FF3F08BFB0F1FF3F08B503D0BDE84A
:1043B8000840FFF7B1BF034B986801F0B2FF4FF018
:1043C800FF3008BD340A0020014B9868704700BFD1
:1043D800340A0020044BC01A044BC0105843044B45
:1043E80001221A54704700BF30070020ABAAAAAABE
:1043F800690A0020C3897F2B12D80A4B1B6863B156
:10440800094B90F90E201B689A4209DB437BDB06B7
:1044180006D1064BC31A18BF012303F001007047E9
:104428000023FAE75C0A0020580A0020B0050020A3
:1044380070B50E4B0E4C1E7C06EB460304EBC30412
:104448000546204602F00FF80A4B002228469A55E6
:10445800FFF7D0FF48B1084B08491A68013A2046CF
:10446800D317BDE8704000F0A7B870BD340A00202B
:1044780030070020690A00205C0A0020DD4300089C
:1044880038B5EFF31185102383F31288BFF36F8FCC
:10449800104B114A9C681068A04206D1FFF7C8FF6C
:1044A80085F31188BFF36F8F38BD00211B7C116025
:1044B8000A4AD35C002BF3D02046FFF79BFF002865
:1044C800EED0637BDB0602D12046FFF701FE2046D3
:1044D800E4E700BF340A0020540A0020690A0020DB
:1044E80009480A4A0A4908B5121A01F0AAFE094AF7
:1044F80009490A4801F0A5FE09480A4A0A49BDE8DF
:104508000840121A01F09DBE00000020DC000020C7
:10451800787C000800000000787C0008000000207B
:104528000000001000000010547D0008034B1B68B9
:104538000BB9FFF77BB90020704700BF600A002065
:1045480030B570B10B4B5B6898420AD0036843B131
:10455800D3E90421D0E90445121941EB0501C3E967
:104568000421D0E9003213605A600023C0E9003307
:1045780030BD00BF4800002010B50E4B1C689C429F
:1045880004D1FFF7D3FF6FF0004010BDFFF7CEFF57
:10459800002CF8D0D4E904321B1A62EBE072B3F1B4
:1045A800004F72F10001EEDA002AACBF1846002075
:1045B800EBE700BF48000020B3F1FF3F08BFB2F1AE
:1045C800FF3FF8B504461D4616465ED08160EFF3FE
:1045D8001187102383F31288BFF36F8F013275F1AF
:1045E800FF3324DA2E49D1E900206FF001039B1A2A
:1045F8004FF0FF3262EB00009E1B60EB0500012EBE
:1046080070F1000301DA01260020C4E90460254E98
:10461800D6F800C07568B44508BF4FF0000CBCF16F
:10462800000F0DD1C4E900652C6074601CE0FFF731
:104638007DFF013645F10005361845EBE070E4E7EB
:10464800DCE90420D4E90431934271EB000E1DDA51
:10465800D21ADCF8043060EB0100CCE90420C4E98C
:1046680000C31C60CCF804403368B34209D09C42B4
:1046780007D10D4B1C6824B9FFF77EFF2146FFF7D1
:1046880059F887F31188BFF36F8FF8BD9B1A61EB58
:104698000001AC45C4E90431C4D0DCF800C0BEE771
:1046A8004807002048000020600A00202DE9F84F44
:1046B800EFF3118C102383F31288BFF36F8FDFF8A9
:1046C800B0A0DFF8B0902C4FC9F80000DAF800006D
:1046D8000024504508BF00200025D7E90021D9F85B
:1046E8000030E04678B3D0E9046C4FEAE37EB34289
:1046F8007EEB0C0B05DAF61A6CEB0E04C0E90464C9
:1047080021E0B21841EBE671C0E90445C7E9002190
:10471800FFF716FF88F31188BFF36F8F83689847F8
:10472800EFF31188102383F31288BFF36F8FD9F842
:104738000030DAF800009B1B5045C446C9F8003029
:10474800CBD1D7E900219A1841EBE3730024C7E9DC
:104758000023C9F80040FFF70FFF2146FEF7EAFFE4
:1047680088F31188BFF36F8FBDE8F84FFFF788BE55
:1047780048000020600A00204807002010B5EFF329
:104788001184102383F31288BFF36F8FFFF7CEFED7
:10479800054A0346D2E90001181841EBE37184F396
:1047A8001188BFF36F8F10BD48070020F8B5044685
:1047B800EFF31187102383F31288BFF36F8F02681A
:1047C80022B187F31188BFF36F8FF8BDD0E90A369D
:1047D800581C46F10001022871F1000127D3012B72
:1047E80076F10001BCBF012316465D1E46F1FF3677
:1047F80001F052FE013041F10001401946EB010180
:10480800012871F1000139DB01F046FE013041F168
:1048180000016FF00102401946EB0103121A4FF034
:10482800FF3161EB030318492046FFF7C5FE236BF0
:1048380001332363236A6BB187F31188BFF36F8F4A
:10484800236A20469847EFF31187102383F31288D1
:10485800BFF36F8F54F8185FA542B2D0002DB0D0C7
:10486800284601F077FD0023AB6787F31188BFF373
:104878006F8F2846BDE8F84001F044BD6FF0010293
:104888004FF0FF33CFE700BFB54700082DE9F041EF
:1048980005461C4690461F46EFF31186102383F306
:1048A8001288BFF36F8FB4F1FF3F08BFB2F1FF3F2B
:1048B80005D186F31188BFF36F8FBDE8F081531CD3
:1048C80074F1FF3309DB012A74F10003BCBF012234
:1048D800002412F1FF3844F1FF37284601F0C3FDE8
:1048E800DDE906010023C5E90A012B6303494246B5
:1048F8003B462846FFF760FEDBE700BFB5470008E8
:10490800014800F04DBB00BF407C00080CB430B536
:1049180089B005460C461C22002101A801F057FE6B
:1049280002238DF806300E4B0293059523462CB1D1
:10493800B4F1004F28BF4FF00043013B1D440DAABE
:104948000C99069501A8009200F00CF814B1059B8B
:1049580000221A7009B0BDE8304002B0704700BFAD
:10496800E76500082DE9F04F8DB04368029383781E
:1049780015469A07804640F10D8100240E78002ED6
:1049880000F00A81252E0BD04B1C03930134029BA7
:104998004146304698470028C0F2F6800399EDE773
:1049A8004E788B1C252E0393F0D00027B946BB46C2
:1049B800BBF11F0F38D8A6F12003102B0AD8DFE867
:1049C80003F02A0909300909092109090928092DCB
:1049D80009091F00A6F13003092B33D92A2E37D134
:1049E8001BF0400F55F8043B40F08280002BA7BF16
:1049F8004BF0200B9946C3F100094BF0280B01E05E
:104A08004BF0010B039B13F8016B0393002ECFD1DE
:104A180030E04BF0020B4BF0040BF3E74BF0080BC4
:104A2800F0E74BF0100BEDE7BBF17F0F19D8A6F1BB
:104A38003003092BD2D81BF0400F03D00A2101FB09
:104A48000737DFE70A2101FB09394BF0200BD9E7CB
:104A58002E2E06D11BF0400F40F09E804BF0400BED
:104A6800D0E76C2E31D02BD8682E36D06A2E3CD0A9
:104A78004C2E3AD0002F46F02003B8BF2BF040024E
:104A8800A3F16501BCBF1FFA82FB0027022901D9E7
:104A9800612B2FD1073525F00705DFF8ACA20835C3
:104AA80007271BF0080F66D00AEB070B56465E4532
:104AB80063D1A4EB0A0A06EB0A02A9EB07096FE126
:104AC800742E9FD07A2E9DD0D4E71BF0800F18BF8C
:104AD8004BF4007B4BF0800B94E71BF4807F18BFEE
:104AE8004BF4007B4BF4807B8CE74BF4207B89E70D
:104AF8001F4687E7A6F16301122900F2F080DFE87C
:104B080011F013004F00EE00EE00EE00EE004F0033
:104B1800EE00EE00EE00EE00EE00FE00E900EE0012
:104B2800EE001B00EE00AF0055F8043B8DF818307E
:104B380001270DF1180AB4E755F804AB834BBAF115
:104B4800000F08BF9A461BF0400F14BF39464FF0BC
:104B5800FF31504601F0CAFC0746A2E7029B4146D6
:104B68002020984700280FDB013EB742F6D34C447B
:104B7800A41BB14698E74E46F7E716F8010B029BCF
:104B880041469847002892DA98F8023043F0040327
:104B980088F802304FF0FF3420460DB0BDE8F08FA2
:104BA8001BF0800F34D01BF4007F2CD0073525F084
:104BB8000705AA4669685AF8080B2BF01005002962
:104BC800ADB237DA404261EB410145F480650DF141
:104BD800180B0A235A4601F095FCA0EB0B0301932E
:104BE8006B0662D5019B25F001019F4289B240F313
:104BF800A180002E00F0998015F0100240F09C80F2
:104C0800BB460D4623E0AA465AF8040BC117D4E761
:104C1800AA461BF4807F5AF8041B01D10846F5E721
:104C28001BF4007F15BF48B208B241F3C01141F32D
:104C3800C031C2E750EA0103C9D11BF0400FC6D00A
:104C4800002FC4D12BF0110295B2BB46019740F258
:104C5800064115EA01021CBF0BF1010B00222CE0F2
:104C68002BF010021FFA82FB0A231BF0800C49D09C
:104C78001BF400711DBF073525F00705AA46AA4693
:104C88001ABF5AF8080B69685AF8040B50EA01056C
:104C980045D12BF016051BF0400FADB242D0002FC6
:104CA80040D12BF0170295B2019715F0100248D0A9
:104CB800019B002E42D103F1010B29075AD4EB07BF
:104CC80006D5D9456FDD0199A9EB0B035F18CB46D3
:104CD8005B4649E04BF0100B10237826C5E7782B8C
:104CE80004D1C6F1780343F01003BEE7029B4146A6
:104CF800252098470028FFF647AF023447E60823E7
:104D08000026B2E7AA461BF480715AF8040BBDD0FE
:104D18001BF400711ABFC0B2614680B2B6E72BF02F
:104D2800060295B20DF1180B54E725F01105ADB246
:104D3800BB468CE70D46B8E73B460D4603F1020B30
:104D4800BBE7DDF804B082E76F7C0008687C0008E8
:104D5800CDE904324146029B202098470028FFF6FF
:104D680013AF049B059A01339945F1DCA4EB0B01C1
:104D7800CC189B460AB3029B41463020984700282E
:104D8800FFF602AF8EB901342744019B391B9942C3
:104D980024DC1D465DBB019AA9EB0B09224455464C
:104DA8001446914435E0019F92E70234414630466B
:104DB800029B98470028E7DAE6E640F206410D42F2
:104DC800E2D015F0020F14BF2B20202015F4806FBD
:104DD80004F10104414618BF2D20E9E7029B414632
:104DE80030209847002804F10104CEDACCE606AB5F
:104DF800013D4146585D029B98470028CADAC3E640
:104E0800029B414620209847002804F10104FFF640
:104E1800BBAEA9EB0403002BF2DCBFE5704700EB47
:104E2800C100408840087047F8B50346FFF7F7FF10
:104E3800B0FA80F0C0F11F0003EB800CCA00DCF868
:104E48001060171D0C4606328DB256B9012101FAC1
:104E580000F0D9680143D960CCF81040DD539D5269
:104E6800F8BDF1000431585AD85303EBC0009E52E4
:104E7800C5805D52F4E7043A2DE9F041CC1D114498
:104E880024F0070421F007010E1BF708B7FA87F290
:104E9800C2F12405AD004FF000080735C2F1200229
:104EA800ED0804604146A760C4F80C80920004F144
:104EB800100001F08CFB6B0043F00103638004EBEE
:104EC800C5027B1B5900A4F800805180A21924F860
:104ED8003550A2F80280A35304EBC70329465A8829
:104EE80042F001025A802046BDE8F041FFF79CBF1E
:104EF8002DE9F04706460D46174698462BB398F815
:104F0800004093F80190DB78A40004EB430498F880
:104F180002301C4444444FF0000ACA4509D3D8F86B
:104F2800042008F1080339463046AC46BDE8F0478E
:104F3800604714F8013B48F823402046FBF78AFAFB
:104F4800013004440AF1010AE7E76FF01500BDE8F3
:104F5800F08770B5002502462846144614F8013B30
:104F68000BB9184609E098B18D4207D1702B04D0CF
:104F7800A3F140023A2A0BD8002070BDA3F14006E5
:104F88003A2E05D853780135941C002BE9D000201F
:104F9800252B08BF80F001002246DEE7002070477D
:104FA8000FB407B504A951F8040B019100F07BFA7E
:104FB80003B05DF804EB04B0704710B5036902460E
:104FC80013F0080009D11368D4689C4297BF126A8D
:104FD800E31AD31A01200B6010BD00231846FAE724
:104FE80013B501A90446FFF7E8FF20B1019BE26869
:104FF800013B13440193206A019BC01A013802B097
:1050080010BD10B5044650182269236AD20702D58C
:10501800013B184010BD984228BFC01AFAE710B5E6
:1050280004460A46C168FFF7ECFF2369E06023F0F5
:105038000803236110BD38B50D46C2698B000168AD
:1050480043F0020342F82130044601682A46FFF77C
:10505800D8FFE36861682060984202BF236943F083
:10506800080323612A462046FFF7CBFF606038BD5E
:105078002DE9F74FC768C6699B4616F8273003F035
:105088000303022B04468846914606EB870A4FF035
:10509800000309D01360CBF800302369990710D4B6
:1050A800002003B0BDE8F08F56F827101360890878
:1050B800CBF80030F1D0FFF7B2FFE368A36001201E
:1050C800EFE7A3695046984716F82730DA070546F0
:1050D800E6D513F002031DD0B8F1000F03D0414606
:1050E8002046FFF7A8FF61682A462046FFF789FF98
:1050F800D4E902319942606004D12A462046FFF77C
:1051080080FFA060A3682360E360236943F008037D
:105118002361D4E7014620460193FFF780FFE26848
:10512800A260B8F1000F04D02168E269019B42F83F
:10513800213005EB0802CBF8002021682046FFF754
:1051480060FF2369206043F00803236116F82730C5
:105158006FF3000306F82730C9F800A0AFE770B571
:1051680004461546FFF74DFF2368834205D123699E
:10517800216023F00803236170BDE269AB0043F0AE
:10518800020342F82130204661682A46FFF739FFBA
:105198006060F1E738B503695B07044606D5456AE0
:1051A800FFF71EFF85422CBF6562606238BD38B5C7
:1051B8000D4604461C22002101F009FAEB68A361A0
:1051C800AB6863612B68E3616B68236200226262EB
:1051D8002A6923B1591E194208BF42F0010222610F
:1051E800012204F128000021BDE8384001F037B859
:1051F8002DE9F04F87B000250093036A03958B4291
:1052080004460E4692460595A94639D3EFF3118B0D
:10521800102383F31288BFF36F8F059AD8462AB1FB
:1052280029462046FFF79BFF0023059304A9204643
:10523800FFF7C3FE0499B14207462AD32268E369FF
:1052480013F8221021F0030103F8221003EB82095E
:10525800216832462046FFF7D4FEE3682060984272
:1052680012D0002788F31188BFF36F8F039929B1F3
:1052780062690AB12046904700230393002FC5D1E5
:10528800484607B0BDE8F08F236943F0080323615F
:10529800E7E718B12046FFF7CEFEE3E7009B5AEA9E
:1052A800030319D0019100F0E6FF0199A0B98BF32F
:1052B8001188BFF36F8F009B524604F12800FEF758
:1052C80091FDEFF31188102383F31288BFF36F8FDA
:1052D800B0FA80F77F09C5E705AB03AA2046256821
:1052E800FFF7C6FE0746BDE770B504468369084662
:1052F8000D4698470246EFF31186102383F3128870
:10530800BFF36F8F2B7843F001032B706168204641
:10531800FFF777FE60602046FFF73CFF86F31188B1
:10532800BFF36F8F70BD2DE9F04104461027EFF3EE
:10533800118687F31288BFF36F8F236913F0080F64
:10534800A36802D16268934200D9226AE169D21A3D
:1053580032B986F31188BFF36F8F4FF0000833E03E
:1053680011F8232012F0030001EB8308F1D0022882
:1053780003D151F82350AD0805D1D00712D4A36941
:10538800404698470546A1682A462046FFF739FE59
:105398002946A0602046FFF742FE86F31188BFF336
:1053A8006F8FC4E742F0020201F823204046A36948
:1053B800A5689847294602462046FFF722FEA060C6
:1053C80086F31188BFF36F8F4046BDE8F081F8B5CA
:1053D8000446836908460D4698470646EFF3118749
:1053E800102383F31288BFF36F8F2B786FF30003BA
:1053F8002B7023699B0705D5E268E36903EB8203F9
:105408009D421AD12B786FF341032B70D4E90231F6
:10541800994204D132462046FFF7F3FDA060314699
:105428002046FFF7FCFD87F31188BFF36F8F04F167
:105438002800BDE8F840FEF7B1BC2B6860F39F0375
:105448002B60F0E702698368120702D442689A4227
:1054580000D2026AD31A181E18BF0120704770477D
:1054680003785B075FBF03684288C3F34A2303EBF3
:1054780012105DBF173020F0070080080020704729
:10548800002070470346BFF35B8F53E8000F421CB0
:1054980043E800210029F8D1BFF35B8F704708B5B6
:1054A80000F0FAFF08BD1FB50023CDE90201CDE9E0
:1054B80000331A4619461846FBF792FF05B05DF807
:1054C80004FB0120FBF74ABD0020704770B5D2E904
:1054D80001369B1B8B420C4615460AD313680A46B5
:1054E8000146981901F065F8AB682344AB60204683
:1054F80070BD6FF01B00FBE770B50E4615461946E8
:10550800044618B9BDE87040FBF728BD33B1C2F3B3
:105518004A231030120D184401F04BF8C4E9005624
:105528002046BDE87040FBF7A3BE2DE9F3415F1CA0
:105538004FEA8708064608F1170020F007008008A0
:105548000C461546FBF774FD0023ADF805308DF8C1
:1055580007308DF8047068B10346019A43F8102F9C
:10556800A8F104012A46294452F8045B43F8045F71
:105578008A42F9D1A20102F4E07242EA482222F0FA
:105588007F4222F47002002322F03F02314602B02B
:10559800BDE8F041FFF7B0BF07B50123019201AAAA
:1055A800FFF7C3FF03B05DF804FB07B5CDE900239F
:1055B80002236A46FFF7B9FF03B05DF804FBF8B5AC
:1055C80006460D4614461F4604B9F8BD214628462E
:1055D8003A46B047241A0544F6E710B54268816890
:1055E8000446D2E900230068FFF7E9FF6368002258
:1055F8001A6010BD38B54B681A68CB689A420546E0
:105608000C4602D10846FFF7E8FF6368BFF35B8FDB
:1056180053E8002F511C43E800100028F8D1BFF3CD
:105628005B8FA3689D54002038BD0A2838B504460E
:105638000D4602D10D20FFF7DDFF29462046FFF772
:10564800D9FF002038BD2DE9F043054687B008464C
:105658000E8891F80090D1F808800C461746FBF7A1
:105668000FFF011EC6F38216C9F3C2091EDB4846A6
:10567800FBF710FE03462146608851F8102B01966F
:10568800C2F34A22002A01EB0204C0F30B1008BF40
:1056980000210022CDE90407CDE902140092414619
:1056A8002846FBF719FF07B0BDE8F0830023E2E7BF
:1056B80043681B685B6800201961704743681B6872
:1056C8001A6852685360704743681B685A6801211A
:1056D80011751868FFF781BF43681B681868FCF7E5
:1056E80065B870B543681D686B6818690C46FBF7A8
:1056F80011FC214603460F222868BDE87040184770
:1057080001460068FCF7ACB80A460121FFF744BF20
:1057180000210120FCF7A4B861B662B680F31188B5
:10572800BFF36F8F704772B6002383F31188BFF3FE
:105738006F8FBFF34F8F30BF62B6BFF36F8F704765
:10574800202809D9B0F1004F08D80138B0FA80F004
:10575800C0F11F0040007047082070473E20704786
:1057680008B5D1E904319847002008BD08B5FCF711
:1057780017FE002008BD08B5062201210020FCF70D
:1057880077FE002211460620FCF7E2FB01210846BD
:105798000722FCF76DFE002211460720FCF7D8FB14
:1057A800082201210220FCF763FE0022114608208E
:1057B800FCF7CEFB092201210320FCF759FE002249
:1057C80011460920FCF7C4FB0A2201210420FCF73A
:1057D8004FFE002211460A20FCF7BAFB05210846B5
:1057E8001722FCF745FE002211461720FCF7B0FBF4
:1057F800282206210A20FCF73BFE00221146282019
:10580800FCF7A6FB002008BD0B68A3F13002782A3C
:1058180082B012D803F1804303F50E3348681A6842
:1058280002431A600B6803F1804303F50E3300202E
:105838001B680193019B02B070476FF08500FAE77F
:105848000B68A3F13002782A9FBF03F1804303F568
:105858000E3349681A689DBF8A4300201A606FF0AA
:10586800850070470B68A3F13002782A0AD803F143
:10587800804303F50E331A684B68934314BF012025
:1058880002207047012B05D0033B022B8CBF01205F
:10589800022070470220704710B50B68012B02D018
:1058A800033B022B21D84A68FF2A1CD0D3B203F14C
:1058B800804303F50E33C2F342341868C2F304225E
:1058C80004FA02F220EA02021A604968CBB203F134
:1058D800804303F50E33C1F302421868C1F3042173
:1058E8008A4002431A60002010BD6FF08500FBE774
:1058F8007047002208B511460B20FCF729FB0B2046
:10590800FCF718FB002211460C20FCF721FB0C20A9
:10591800FCF710FB002211460D20FCF719FB0D20A7
:10592800FCF708FB002211460E20FCF711FB0E20A5
:10593800FCF700FB002211460F20FCF709FB0F20A3
:10594800FCF7F8FA002211461020FCF701FB1020A2
:10595800FCF7F0FA002211461120FCF7F9FA1120A1
:10596800FCF7E8FA00222F201146FCF7F1FABDE80F
:1059780008402F20FCF7DEBAFFF70EBE13460A4692
:105988000121FFF712BE70B505460E4641F28A3472
:1059980031462846FDF76AFB40B1013C04D000219E
:1059A8000120FEF7FDFCF3E76FF00F0070BD38B57E
:1059B80005690C462846FDF75FFA21462846FDF79B
:1059C80055FA21462846BDE8384000F06BB9F8B5CD
:1059D8004668D6E904738B4205460C4613D9384607
:1059E800FDF736FB68B9B3691C2202FB04330122B8
:1059F8009A7168682146FFF7DAFF21463846FDF7B5
:105A080019FB0020F8BD6FF01500FBE70021FDF73A
:105A18004DB90121FDF74AB90221FDF747B9032124
:105A2800FDF744B90421FDF741B90521FDF73EB959
:105A38000621FDF73BB90721FDF738B90068C0F327
:105A4800001070470068C0F3802070470068C0F3FA
:105A5800005070470068C0F3806070474068C0F32A
:105A6800001070474068C0F3802070474068C0F35A
:105A7800005070474068C0F3806070470068C0F30A
:105A8800401070470068C0F3C02070470068C0F33A
:105A9800405070470068C0F3C06070474068C0F36A
:105AA800401070474068C0F3C02070474068C0F39A
:105AB800405070474068C0F3C06070470068C0F34A
:105AC800C00070470068C0F3402070470068C0F30A
