:10000000C0200020111D000003790000FD1C00002D
:10001000FD1C0000FD1C0000FD1C00000000000095
:10002000000000000000000000000000191E000099
:10003000FD1C000000000000E51D0000FD1C00008C
:10004000DD1F0000DD1F0000DD1F0000DD1F0000C0
:10005000DD1F0000DD1F0000DD1F0000DD1F0000B0
:10006000DD1F0000DD1F0000DD1F0000DD1F0000A0
:10007000DD1F0000DD1F0000DD1F0000DD1F000090
:10008000DD1F0000DD1F0000DD1F0000DD1F000080
:10009000DD1F0000DD1F0000DD1F0000DD1F000070
:1000A000DD1F0000DD1F0000DD1F0000DD1F000060
:1000B000DD1F0000DD1F0000DD1F0000DD1F000050
:1000C000DD1F0000DD1F0000DD1F0000DD1F000040
:1000D000DD1F0000DD1F0000DD1F0000DD1F000030
:1000E000DD1F0000DD1F0000DD1F0000DD1F000020
:1000F000DD1F0000DD1F0000DD1F0000DD1F000010
:10010000034613F8012B002AFBD1181A0138704757
:1001100030B58BB0002301AA8DF80130ADF8043062
:100120000223CDE90423039302AB60F07F00069322
:1001300004AA0123CDE908230D468DF80000CDF86F
:1001400008D007934FF0FF324FF0FF330A4805F015
:1001500045FD0A480A49836806AA1C6808ABA047FF
:100160000446054805F0B2FD14B99DF805302B7022
:1001700020460BB030BD00BF54020020688600004E
:10018000BC880000F7B5194A1948032107F001FBA4
:10019000184807F0F6FF30B3174807F0F2FF10B326
:1001A000164E134D164F0DF107010020FFF7B0FF5B
:1001B0009DF80730044603213246284607F0F2FA3C
:1001C0005CB9104A23460321284607F0EBFA0021C8
:1001D0004FF47A7006F018F9E5E701213A4628460F
:1001E00007F0D7FAF3E7002003B0F0BDDC8B000086
:1001F000248800006886000040860000EF8B000025
:100200001A8C0000FF8B00002DE9F04F91B084079D
:10021000009302F004030293C2F3C20303F101034B
:10022000DDF86890039205460E46059340F0BA81CA
:10023000041D30B1072909D86FF01B0011B0BDE8CB
:10024000F08F01F00706341DC6F10806009B4FF041
:100250000008591E4FF0040A4FF0FF330193CDF808
:1002600010804746C34653460DB1009A2260059858
:10027000002800F3E8809848009A824203D3974808
:100280008242C0F0E080039AA4EB050E92074FEA89
:100290009E0000F103810F2F00F2B180002D00F0CD
:1002A000058107F140020DEB020C019A0CF8200CBD
:1002B0000CF8102C049801300490E7E07A285DD8FF
:1002C0004B280ED8472859D829282DD8252852D070
:1002D00054D820287AD02338D0F1000B4BEB000BF8
:1002E00074E04C382E2849D8DFE800F070484848C0
:1002F00048484848484848484B484848484848487B
:100300004859484B4B595959704B6D487048184BD8
:10031000184848827F4B48484B487F0000204FF0E8
:10032000000B4FF0040A38E02A38C0B2012202FA6A
:1003300000F010EA0E0F49D110F0625C2FD110EAE4
:10034000020B43D06046013C5444B4FBFAF40AFB70
:1003500004F4002D61D0A3EB050CA444B4453FF692
:100360006BAF002868D1042B47D159F8043B2360B8
:10037000043404232AE0019A013A01924FF0000B61
:1003800024E011F8010C6C2834D111F8023C002053
:100390006C2B8346C5D14FF0080A5346D3E709F1C9
:1003A000070929F007090734F9E802AB24F007042C
:1003B00035B106982044B0423FF63EAFC4E900ABE9
:1003C00008344FF0000B4FF0080A534611F8010FA4
:1003D000002878D0BBF1000F7FF470AF2528F5D14D
:1003E000019B013301934FF0010B4FF0040AECE73E
:1003F000584694E700208346A5E7082B02D06FF00B
:1004000015001BE709F1070929F00709F9E802239C
:10041000C4E9002308340823D8E768B9042B02D1C3
:1004200009F10409A4E7082BE9D109F1070929F02A
:10043000070909F10809EDE7059A013A059259F80B
:10044000042B009210E7039A900720D5A4EB050E29
:100450004FEA9E004FF0010CBEF5007FCFD20F2F68
:10046000CDD8F5B107F140020DEB020EC0B2019AF2
:100470000EF8200C0EF8102CBCF1000F3FF41AAF50
:1004800060F07F000EF8200C08F101080137C5F17B
:100490000802043406924FF6DA7E97E74FF0000C1C
:1004A000DAE7BCF1000F01D00136EFE7029802361F
:1004B0000028EBD10098CDE90631FFF721FEDDE9F8
:1004C00006310644E2E7631BB3F5806F97D23DB96E
:1004D000A6F10804E018B1E6B085000058960000C7
:1004E000029A28609B082B709DF81030C2B1EB7007
:1004F00085F80280B8F1000F05D008A80022C5F1E8
:10050000010C97420ED1C5F101030DF120094FF006
:10051000000A01930DF1300B574512D1601B8DE697
:100520006B70E5E710F8013B190608D504EB0C0EDB
:10053000B64503F07F033FF67FAE04F8013B01327E
:10054000DFE7B8F1000F03D099F90020002A17DB8C
:10055000029BD3B11AF80B2004F8012B0022019B57
:1005600098182044B0423FF667AE99F8000004F8AE
:10057000010B00990392204607F0F1FF039A1444FF
:100580000AF1010A09F10109C6E799F8002055F8B6
:1005900022300093029B45F822300098FFF7B0FD0F
:1005A000421CDCE76FF00D0048E600BF2DE9F04F7C
:1005B00097B000AF90F802A0D7F880B03B62CBF3C1
:1005C000C0030446FA62BB61894641B945780078A8
:1005D0000AEB800020444D4517D8A0EB0409E378CE
:1005E000FB61BAF1000F02D01BF0010F16D1FB69BD
:1005F00053BBFB6A1BB13A6A4946204698474D46B1
:1006000028465C37BD46BDE8F08F461C3046FFF7F4
:1006100077FD0130304409F10109DCE72378626895
:100620007A62FA6A9900796104EB8301002A40F04A
:1006300000814D460E4601EB0A094FF000084E4579
:100640004CD101EB0A0610E01BF0020FD1D0237849
:100650009A007A6162687A62FA6A04EB8301002A7E
:1006600077D14D4601EB0A0690461BF0050F0CBFF3
:1006700002230123FB62FB6906EB430A0BF0020332
:10068000BB625645BCD016F8021B16F8013C54F864
:100690002390AF4B994502D3AE4B994536D3BB69F6
:1006A000002B40D0786A06F07CFC00283BD0E9465D
:1006B0008AB06A46A84B53617B6AC2E906314FF49F
:1006C00000731384A54B42F8103FA54800234FF454
:1006D000125100F007FD023DCD46D2E716F8013B6E
:1006E000F96254F82300FFF70BFDD7F88430F96A5C
:1006F00001304BB1D7F8883098453EBFD7F88430E9
:1007000023F8180008F10108054498E7BB6923B1F4
:10071000786A06F046FC0028C9D11BF0010F05D10C
:10072000FB6AED1AADE7BB6A002BAAD04846FFF77B
:10073000E7FCD7F8843053B1D7F8883098453FBFED
:10074000D7F88420431C22F8183008F1010805442A
:1007500097E7BAF1000F72D01BF0040672D0D046B2
:10076000002607F1480052463B61B96207F0F7FEE8
:10077000B96A3B6901EB0A02BA62FA69F969520087
:10078000FA60BA6A02EB41023A610BF00202BA6007
:100790003A69B96A8A4257D162787A621BF0020FCD
:1007A00032440CBF4FEA580100211BF0010FD2B2B6
:1007B00040F09F801BF0040F14BF40460020BB6137
:1007C0006270A070E1703A6A7969FB6A20469847C6
:1007D000051EFFF615AFBB6923707B6A6370FB696A
:1007E000E37041463A6AFB6A84F802A007F14800C8
:1007F0009847B0F10008C0F2B5807B693A6AA9EB6E
:100800000A01C91AFB68C91AD7E90A0398470028E0
:10081000C0F2AA80A84408EB00054FF0000B07F1D6
:10082000380AB34567D300213A6AFB6A08469847FD
:10083000E6E656464FF0000807F1380093E75646C3
:10084000D04697E7B04695E7BA6A12F8021BBA623B
:1008500012F8015C3E4A54F82500904202D33D4A0A
:1008600090421ED3BA6932B1786A7B6006F099FB78
:100870007B6800288CD1BA6802BB08F1280207F116
:10088000300C08F10100944407F1580252FA80F04C
:1008900008F102080CF8101C5FFA88F800F8105CE8
:1008A00076E7BA693AB1786A7B6006F07AFB7B68D2
:1008B00000287FF46DAF1BF0010F09D006F128026C
:1008C00007F13000711C161806F8205CCEB25FE705
:1008D0001BF0040F3FF45CAF08F1280207F1300071
:1008E00008F1010102EB000808F8105C5FFA81F8DA
:1008F0004EE7002063E71BF80A3087F8373054F8DA
:100900002390D7F88430FBB133F81B803A6AFB6A36
:10091000012107F137009847002825DB0544B8F18D
:10092000000F06D14846FFF7EBFB00F101081FFA64
:1009300088F83A6AFB6A414648469847002813DB24
:1009400005440BF1010B6CE7D7F88480DEE700BFAC
:10095000B085000058960000368C000004000001AD
:100960002C88000045464BE6054649E6014B1860D9
:10097000704700BF0000002080B505460E461746B0
:10098000984605F055FD034607F008FEDFF818907D
:10099000044649F80030424630463946A84754F8E4
:1009A000090001F0CDF900BF080000002DE9F04773
:1009B000058B04462807904611D4022905F0070547
:1009C00040F0CC80204606F072FD78B10138218BD2
:1009D000042811D8DFE800F0C2106D8595000129C8
:1009E0000CBF45F0100545F02005258388F31188DC
:1009F000BFF36F8FBDE8F08701F0070AAA4500F04A
:100A0000A5800027B9463E46A368002B00F0BC80B5
:100A100041F00801218388F31188BFF36F8FA1682B
:100A2000002900F0BA800D68002900F0B680D1F8E6
:100A30000480334652462046C047002D76D02B68AE
:100A400029461D46F0E701F007035A1F012A1BD86B
:100A5000002221F00701062B276889B2C4E9002291
:100A600009D13B4603E0628B013262831B68002B95
:100A7000F9D141F002012183204606F018FD00283B
:100A80007AD041F0200176E0042B0AD121F0070151
:100A900089B22183204606F00AFD10B141F0200101
:100AA0002183218B01F0070AAA454FD00027B946C0
:100AB000AAE7236921F0070141F00601062DD3F8CA
:100AC000009021832DD1B9F1000F3FD041F00801F2
:100AD000218388F31188BFF36F8F3A492046C847B6
:100AE00029E021F00701236941F0040189B2042DB6
:100AF000D3F804902183E6D000273E464FF0040A45
:100B000082E721F00701236941F0050189B2052D33
:100B1000D3F808902183D6D000273E464FF0050A2F
:100B200072E700273E464FF0060A6DE72B4687E73F
:100B3000B9F1000FD1D1EFF31188202383F312888C
:100B4000BFF36F8F238B23F008032383258BEA06E3
:100B50002ED525F01003238305F007056669218B48
:100B6000002EBFF670AF00232768C4E9003321F0E0
:100B7000070141F001012183218B01F0070AAA45F9
:100B80004FF000097FF440AF002F9CD041F00801E6
:100B9000218388F31188BFF36F8F002FC8D03D6881
:100BA000394633465246204606F0ADFC2F46F4E760
:100BB000AB067FF51BAF25F02003238305F0070567
:100BC00000E700BF337500002DE9F047DFF85880DB
:100BD000044607464FF0010914B93846BDE8F087CE
:100BE00094FAA4F5B5FA85F509FA05F32E0108EB98
:100BF00005156FEA030A24EA03042B7B002BEBD0D4
:100C000058F806301B694BB94644042273682846DD
:100C1000196807EA0A0700F051FADDE72846984705
:100C20000028D9D1F0E700BF8488000030B5104912
:100C3000104889B0002207F007FC0F4D0F49002231
:100C40000023CDE9062300240E23CDE90334CDE9AA
:100C500001440B4B00944FF44072284605F024F9F0
:100C60000849284607F0E2FA204609B030BD00BF27
:100C7000890C00000007002078020020C00F00202F
:100C8000610F0000EA8C0000014805F05BB800BF6E
:100C9000680200202DE9F04780461E480F4606F006
:100CA000F2FC064678B300252846BDE8F087237B92
:100CB0006BB12368DB680BB12046984723681B693A
:100CC000CBB9636804221968204600F0F7F90136B1
:100CD00010344C45EBD3B8F1000FE5D0002DE2D035
:100CE0002846FFF771FF0546002FF7D000210A20A4
:100CF00005F08AFBF2E7204698470028E1D00AFA7F
:100D000006F31D43E3E7044CDFF8109005464FF06F
:100D1000010ADEE70809002084880000A48800009A
:100D2000014B53F820007047E488000008B50346E3
:100D300008462BB1044A136000F06AFC002008BD8D
:100D40006FF01500FBE700BF0400002010B5044C55
:100D5000237813B9034804F0F5FF0123237010BD75
:100D6000540B00206802002010B50446084806F025
:100D70008AFC5CB1BFF35B8F064B53E8001F01395F
:100D800043E80012002AF8D1BFF35B8F10BD00BF0B
:100D900000090020040900200020064BBFF35B8FF0
:100DA000014653E8000F43E80012002AF9D1BFF3CF
:100DB0005B8F70470009002070B5FFF7EDFF084C0E
:100DC000084E0546B44200D370BD63685B792BB111
:100DD00023685B6813B12946204698471034F1E731
:100DE00084880000A488000010B5044C0449204603
:100DF00006F005FA034B1C6010BD00BF0402002082
:100E0000D0880000F8080020084A094808B50023E7
:100E10001370084A1360084A4FF400411360FFF74B
:100E200085FFBDE80840FFF7DFBF00BF550B00207E
:100E300083760000000900200409002001460022FA
:100E40000148002306F0FCB904020020014806F026
:100E500092BA00BF04020020024B0146186806F057
:100E6000DEBA00BFF8080020014806F013BB00BF3F
:100E70000402002070B5234B1878002840D0FFF7FB
:100E8000E5FF054690B1BFF35B8F1F4B53E8001F92
:100E9000013943E80012002AF8D1BFF35B8F1B4CE5
:100EA0001B4EB44222D32846FFF7D6FF194B1A4CEB
:100EB0001B68002B0EDD07F0C5FAD4E90032C01A1A
:100EC00040F2E93361EB0201984271F1000101D374
:100ED000FFF772FFD4E9003213F57A7342F1000292
:100EE000C4E90032BDE87040FFF7BEBF63685B79BC
:100EF00023B1236829461B68204698471034D0E761
:100F000070BD00BF540B002004090020848800003D
:100F1000A488000000090020F806002070B50D4DDF
:100F2000297861B90120FFF7B5FE0B4C0B4EB44296
:100F300006D3FFF79FFF0028FBD101232B7070BD64
:100F400063685B791BB1236820469B68984710341F
:100F5000EDE700BF550B002084880000A488000046
:100F600000212DE9F0470846FFF794FE044658B3E8
:100F70004FF032084FF0000907F010FB1B4B1C4AE2
:100F80001B58136033B11B4B1B68092B02DD1A4839
:100F900004F0D8FE194FDFF860A0002544B12046C8
:100FA000FFF712FE044618B94FF0FF384FF0FF3933
:100FB000FFF760FF064628B9B5B942464B46504692
:100FC00004F0E4FE3546E9E74FF0FF384FF0FF3913
:100FD000D2E72B689B691BB100221146284698472F
:100FE0001035BD42F5D3E8E7054DFAE708000000EB
:100FF000FC0800200409002068020020A4880000EA
:101000008488000013B5184806F03DFB174B1B7889
:1010100073B1EFF31184202383F31288BFF36F8F32
:10102000FFF728FF84F31188BFF36F8F02B010BD64
:101030000F4B1B68002BF9D050B900220023CDE9DB
:1010400000230C484FF47A72002305F047FCEDE7CB
:101050000928EBD1074807F003FA074802B0BDE8BA
:10106000104004F06FBE00BF04090020550B0020A3
:10107000FC080020000700206802002010B5064B85
:101080001B68044698472146A060044806F054F9BE
:10109000BDE81040FFF7B6BF0400002004020020A6
:1010A000044A054B9B1AB1EBD30F34BF52F8310001
:1010B000002070472488000084880000084BC31A71
:1010C00010B41B1144680133237143689A7143685B
:1010D0001960436801225A7110BCFFF737BE00BF88
:1010E000848800002DE9F04F8FB004AFC1F34A2887
:1010F000B8600D4691467B600C0DB8F1000F63D0CF
:10110000002607F114034FF0040B4FF00A0AC7F84A
:101110000C80C7E907667E620193CDF808B0CDF870
:1011200000A007F11C03F96832464846FFF73EFA73
:10113000B0F5006F03461CD36C468AB0D9F8041092
:1011400004AB2648C3E9050140F2FF71D9611A4694
:101150004FF400711984224B42F8103F2148334666
:101160004FF41251FFF7BEFFA5462C37BD46BDE830
:10117000F08FC0F30A0804F11700184420F00700AC
:1011800080083B60FFF75AFE68F35325044690B190
:101190003B68154AC7E9083600F1100107F114034E
:1011A000F961CDE900A3CDF808B0F96807F11C0397
:1011B0004846FFF7FBF968F353257B68B9682A4670
:1011C000204606F096FAD0E704F1170020F0070059
:1011D0008008FFF733FE0446EDE700BFFF8C0000F8
:1011E000040000013C880000C77600002DE9F04FA4
:1011F00087B0DDE91279DDE9105A04460391934680
:101200009846BFB1CDF800903B46524610210020D1
:10121000CDF81490FEF7F8FFB0F5006F06460AD33C
:10122000184A194840F2FF73022107B0BDE8F04F99
:1012300006F0B8BA3E4605F11700304420F007002A
:1012400004F007048008FFF7F9FD0BF0070BE4003A
:1012500044EA8B1444EA462444EA0554054640B166
:101260003FB1CDF800903B46524631461030FEF774
:10127000CBFF039943462246284607B0BDE8F04F0E
:1012800006F037BA3E8D00003C880000406820B16F
:10129000034BC01A40F3CF0070474FF0FF30704748
:1012A000248800000EB403B503AB014653F8042BA9
:1012B0000448019301F02CF802B05DF804EB03B090
:1012C000704700BFEF770000CA0605D48B064CBFFD
:1012D00002490349FFF7E6BF704700BF778D000062
:1012E000768D00002DE9F04F89B09B46149B069344
:1012F0009DF84CA0159B0593169B179E04930446DE
:101300000D469046BAF1000F00F09D8006F4807300
:10131000079306F0D6F906F00209024600283ED0EF
:1013200091492046FFF7BEFF0746B9F1000F08D0EC
:1013300016F0440F35D18D492A462046FFF7B2FFFB
:10134000074406F0010353B1894B8A4953F82A2018
:10135000894B2046002A08BF1A46FFF7A3FF06F470
:101360008073002B49D006F00803002B63D1B8F13D
:10137000000F66D0814942462046FFF793FF05469D
:10138000069B3D44002B6DD1049B002B73D1F307CA
:1013900000F1E48031462046FFF796FFD8E007468B
:1013A000C3E7774B18680028CAD0764B4FF47A7998
:1013B0001B68B5FBF3F54FF46161B5FBF0F300FB7F
:1013C000135509FB05F54FF03C0CB3FBF1F201FBA3
:1013D0001231B5FBF0FEB1FBFCF300FB1E550CFB1C
:1013E000131109FB05F50091B5FBF0F56649CDE950
:1013F00001E52046FFF756FFA2E706F00803EBB130
:10140000624B634953F82A202046FFF74BFF0546FD
:10141000B8F1000F05D0594942462046FFF742FF78
:101420000544BBF1000FABD05A495A462046FFF79E
:1014300039FF0544A4E74FF0000BE1E706F008058B
:10144000E6E745469CE7BBF1010F069B06D1002B62
:1014500064D1049B002B7BD000250CE0002BF8D03E
:101460004D485CE04D48069B4D49224605F068FD1D
:10147000049B002B68D0DFF82C81DFF82C91049FAF
:101480003146102F204628BF1027FFF71DFF4FF0D1
:10149000000B5D4545DC059B49461A782046FFF761
:1014A00001FF4FF0010B1BF0070F03D1414620460F
:1014B000FFF7F8FE5F453BD9059B494613F80B2023
:1014C0002046FFF7EFFE0BF1010BBBF1100FEAD145
:1014D000364920464FF0000BFFF7E4FE5A46059BC5
:1014E0009A5CA2F120015F2928BF2E2230492046B4
:1014F000FFF7D8FE0BF1010BBBF1100F1DD01BF055
:10150000070F03D141462046FFF7CCFE5F455A4600
:10151000E5D841462046FFF7C5FEEBE71F48554694
:10152000A1E741462046FFF7BDFE0BF1010BB0E7F6
:1015300020492046FFF7B6FEC5E7059B3B440593CF
:10154000049BDB1B04939AD1BAF1000F7FF41FAF09
:10155000204609B0BDE8F04F06F03CB9064A0549FF
:101560002046FFF79FFE15E77E8D0000828D00006C
:10157000F4880000D6930000798D0000A78D00004C
:10158000100900200C0900208B8D00000889000044
:10159000AB8D0000B18D000025780000EF770000D2
:1015A00011230000BE8D0000B68D0000C08D00002C
:1015B000C28D0000BC8D000073B542F20F738B42E8
:1015C00028BF0B4605680F4A04460521684605F00A
:1015D000C5F963680C495B6806460B22284606F08D
:1015E000EBF863683246694628465B6806F0E4F823
:1015F000636806495B681B22284606F0DDF802B0E6
:1016000070BD00BFE28E0000E18D0000C58D0000BE
:10161000074A00210123904206D8064A01B9012356
:101620001360054B1860704740085B000121F2E72A
:1016300040420F000C09002010090020014B01223C
:101640001A707047560B0020014B0020196070473C
:1016500028090020024B034801221A7006F0BAB88C
:10166000570B0020388900000148FFF7A5BF00BFD5
:101670003889000010B5064B18680C46FFF750FB80
:1016800021460346BDE8104002480F22184700BF1C
:10169000280900203889000010B9074B18707047DE
:1016A000064B1B781BB141F2883006F065BD052062
:1016B000002104F0A9BE00BF560B0020570B0020EC
:1016C0002DE9F843DFF874901D4F80460E46042440
:1016D00099F8005095B904F0C1F8284632464146C1
:1016E00004F06EF8054604F0C3F8E5B101233B7041
:1016F00099F8003073B93046BDE8F8833246414668
:10170000002004F05DF80546EFE72046FFF7C4FF30
:10171000651E2C46002004F097F80028EBD03B789B
:10172000002BF2D1E7E73B78002BE4D0013C2046C8
:10173000FFF7B2FF3B78002BCAD1DCE7570B002044
:10174000560B0020F8B5074F0D4604464618B44224
:1017500001D12846F8BD14F8011BBB6801485B683D
:101760009847F4E754860000014B0360002070475F
:101770007C8900002DE9F047064600AF0C460029A1
:1017800036D0E9468AB0D1E90012A3686D462148F7
:10179000A8464FF0050AC5E90501C5E9072348F841
:1017A00010AF1D48424600234FF42151FFF79AFC29
:1017B000CD46D4E903126369AD461848C5F810A0B8
:1017C000C5E90501C5E907231348002342464FF444
:1017D0002151FFF787FCCD46E369114A0E480121EC
:1017E00005F0E0FFA3690F4A0B48012105F0DAFF7D
:1017F000012E07D1EFF305830B4A0748103B314612
:1018000005F0D0FF2146304604F048F8BD46BDE85B
:10181000F08700BF378E00005C880000668E0000F5
:10182000958E0000A48E0000D28E000030BFFFF71E
:10183000FDBF00BF2DE9F0410B4EDFF8308006EB15
:101840000807CC1B054632460949204606F087FEAC
:10185000A01942460021083C06F08FFE2C6707F1D4
:101860000800BDE8F08100BF000000000400000097
:10187000A4880000074A936893F90E10002907DB3B
:10188000526993421FBF044A536843F08053536028
:10189000704700BF240B002000ED00E070B5294C1C
:1018A00006460D462848294906F032F8A36AD904AD
:1018B0003CD52548264906F02BF81720A36A1A05BF
:1018C00004D52148234906F023F818201D4CA36AAB
:1018D0009B0512D51C48204906F01AF8A36BA26A92
:1018E000100409D51D4A1848012105F05BFF1EB1FF
:1018F000A36A23F40043A3621920124CA36A59057A
:1019000004D51148164906F003F81A20A36ADA052F
:101910000ED50D48134905F0FBFF1B20094A936AB9
:1019200043F47F43936200232B7070BD1620C5E7FC
:10193000A36A9B04F2D504480B4905F0E9FF1C207B
:10194000ECE700BF00ED00E05C880000E58E0000E1
:10195000FB8E00000C8F00001F8F0000388F0000EE
:101960004D8F0000688F0000808F000010B5204C64
:101970002049214805F0CCFFA36A990136D51E48BD
:101980001E4905F0C5FF1E20A36ADA0104D51A48D6
:101990001B4905F0BDFF1F20154CA36A1B0304D58E
:1019A0001548184905F0B4FF2120A36A590304D54E
:1019B0001148154905F0ACFF22200D4CA36A9A038B
:1019C00004D50D48114905F0A3FF2320A36ADB03CA
:1019D00004D509480E4905F09BFF2420044A936A68
:1019E0006FEA03436FEA1343936210BD1D20CBE7F8
:1019F00000ED00E0AF8F00005C880000C78F0000A2
:101A0000DA8F0000F48F0000129000003790000081
:101A1000519000002DE9F843364D804689463648FE
:101A20003649174605F074FFAB6ADE0627D5344900
:101A3000314805F06DFF1124AB6A1D0704D531490B
:101A40002D4805F065FF12242A4DAB6A980718D57A
:101A50002D49294805F05CFF6E6BAB6A190646D527
:101A60002A4A25483346012105F09CFEB9F1000FB2
:101A700003D0AB6A23F08003AB62132403E010248D
:101A8000DAE76FF015061B4DAB6ADA0704D520497B
:101A9000194805F03DFF1424AB6A9B0604D51D4987
:101AA000154805F035FF1524124B9A6AD50602D465
:101AB0009A6A90070AD55B68190507D541463046F2
:101AC00000F042FA10B180F309880224094B9A6AA7
:101AD000920642BF5A6A22F400525A629A6A42F04F
:101AE000FF029A6200233B702046BDE8F8836FF046
:101AF0001506C2E700ED00E05C8800007C90000065
:101B0000929000000C8F0000C5900000DD90000056
:101B1000F3900000808F00002DE9F041664B8AB001
:101B2000D3F8048000AF0446C8F30805002686F306
:101B30001188BFF36F8F02F07F43B3F17F4F07D15E
:101B400002F00C03082B12D15C495D4805F0E0FE61
:101B5000002634460023FB71EB1E092B00F28A801D
:101B6000DFE803F00A80837D8888888888861007EC
:101B70004CBF0C460126EDE7524951484E4D05F049
:101B8000C7FE0023FB71EB6A9A0705D54E494C4806
:101B900005F0BEFE002333E0EB6A002B01DA4B496F
:101BA000F5E7EB6A5B00F5D54949454805F0B0FE1D
:101BB0006B69A26943F480736B61BFF34F8FBFF30E
:101BC0006F8F6B6932F8022C23F480736B61BFF363
:101BD0004F8FBFF36F8F4DF602739A4209D0AB6AF5
:101BE000DBB27BB3FA1D01212046FFF713FF03464A
:101BF00006E02368374A3248012105F0D3FD236807
:101C0000FA79DAB907F1080504F1200C2068616857
:101C10002A4603C2083464451546F7D17A6A002E75
:101C200044D0C2F3080121B96FEA52226FEA42227E
:101C30007A6207F108011846FFF79CFD2837BD4678
:101C4000BDE8F081AB6A13F47F4F04D0F91D012089
:101C5000FFF724FECBE7AB6AB3F5803F9AD3FFF7DB
:101C600085FEC4E7FA1D0021BEE7F91D0020EFE75D
:101C700019498CE7194A1A4B18F4F87FE8468AB0DC
:101C800018BF13466A461749C2E905134FF400739B
:101C90001384103D144BD56142F8103F08480023CF
:101CA0004FF41151FFF71EFAC54673E722F4FF7295
:101CB00022F00102BCE700BF00ED00E0409100000F
:101CC0005C8800006B91000082910000A3910000ED
:101CD000B1910000D0910000EC910000279100002C
:101CE000129100001092000004000001024A5369A2
:101CF00043F010035361704700ED00E0EFF30880FC
:101D0000EFF3098101B57246FFF706FF01BD00BF81
:101D100002F0FEF9202080F3118808484FF4046196
:101D2000401880F30988EFF314800221084380F300
:101D30001488BFF36F8F00F0C7F800000013002075
:101D4000084B9B6883420BD1EFF3058343B1064BED
:101D50005A6842F080525A605A6A22F400425A622B
:101D600006F035BB240B002000ED00E0094A936823
:101D70006FF00A019967084958674B6843F0805330
:101D80004B60002383F31188BFF36F8F9368986FC4
:101D9000704700BF240B002000ED00E010B50446A2
:101DA000EFF31183202383F31288BFF36F8F0A4B65
:101DB00058699860094B4FF000625A60084B026FF7
:101DC0001A600022436F426783F31188BFF36F8F5D
:101DD00000F022F9204610BD240B002000ED00E0A9
:101DE000500900200B498A684FF030001044EFF38F
:101DF000098C80E8F01F74467046FFF7CFFFA646B7
:101E000004498A6802F1300090E8F01F8CF30988D9
:101E100070470000240B00201EF0040F0CBFEFF3EE
:101E20000880EFF30980816911F8021C0229FFD0B4
:101E300001B505F062FD01BD40B2002807DB044A90
:101E40004109012300F01F00834042F82130704710
:101E500000E100E040B200280CDB4309064900F035
:101E60001F0020330122824041F82320BFF34F8F0F
:101E7000BFF36F8F704700BF00E100E0054B4209E0
:101E800000F01F0053F82220012303FA00F0104055
:101E9000704700BF00E100E040B20028A8BF00F199
:101EA000604001F10101B8BF064B4FEA4111ACBFE0
:101EB00000F5614000F00F00C9B2B4BF195480F8BA
:101EC0000013704714ED00E00F4A08B50F4B22F0E5
:101ED0007F029A60BFF34F8FBFF36F8FD3F88820D4
:101EE00022F47002C3F88820EFF3148323F0040374
:101EF00083F31488BFF36F8F03F0BCFD04F024FB61
:101F000000F060F803F0FAFD0000000000ED00E0D2
:101F100042F8203C009B42F81C3C0A49019B42F8D5
:101F2000183C029B42F8143C21F001014FF08073F1
:101F300042F8043C42F8081C0023203A026543673B
:101F4000704700BF79090000094A0346906870B1E4
:101F500013F1160F006E05D0A0F140029A4205D889
:101F6000834203D2814228BF00207047002070477F
:101F7000240B002008B515460B4A0C4B9060026FED
:101F80001A600E4600F048F82C4686F309884FF098
:101F90000000074B984720464FF000014FF0000229
:101FA0004FF00003034C2047240B00205009002071
:101FB0002179000079090000014B10221A61704755
:101FC00000ED00E0044800232021C2180133302B2B
:101FD00082F80013F9D1704700E100E008B5EFF393
:101FE0000583064A103B02EBC30152F833004968EF
:101FF0008847BDE80840FFF73DBC00BFA48600004D
:10200000024B034A0348012100F08AB80000042073
:10201000000000207C890000026E054B403A1A60E7
:10202000044A4021C3E901121846012100F082B898
:102030005409002000000B1508B503461048D0F8DD
:102040009020C2F30722013A934207D90D480E4A65
:10205000012105F0A7FB6FF0150008BDC0F898300E
:102060000A6822F01F021A4342F01002C0F89C20B6
:102070008A6842F00102C0F8A0201846EDE700BFD0
:1020800000ED00E05488000027920000F0B50E46F5
:1020900085B01F4604460025B5420DDA606810B3CE
:1020A00097B1431E18420AD0104A11482B4601210D
:1020B00005F078FB6FF01502104605B0F0BD1F2843
:1020C000F2D921680B42EFD12368019305F04BFC54
:1020D000A36801A90343D0B20393FFF7ADFF10F14A
:1020E000160FE7D0421C01350C34D5E74D920000A5
:1020F00054880000044B0522C3F89420BFF34F8F8F
:10210000BFF36F8F704700BF00ED00E0BFF35F8F3C
:10211000024B0022C3F89420704700BF00ED00E09E
:1021200010B5034C01232278FFF7B0FF207010BDDB
:10213000690B002008B50B4A00231278FFF7A6FFB1
:1021400010F1160F07D0084A0021D2F89030C3F3DF
:102150000723984200DB08BDC2F89800C2F8A0101F
:102160000130F2E7690B002000ED00E02DE9F043BB
:1021700057485849D0F890300D68C3F307239D4263
:1021800085B000F2A180FFF7C1FF496800229542A7
:1021900001F10C011AD1504C504F25706846FFF7E1
:1021A000E3FADFF83C81DFF83C9106460025AE42B9
:1021B0001FD1237846490020D1F89020C2F307228E
:1021C00093427BDBFFF796FF00204CE0C0F898209D
:1021D00051F80C3C23F01F03134343F01003C0F8E5
:1021E0009C3051F8043C43F00103C0F8A0300132A8
:1021F000CDE7009800EB05114FEA051CCB683B408A
:10220000B3F5000F44D00AD8B3F5001F2ED0B3F5B4
:10221000800F34D0B3F5801F10D00135C7E7B3F17C
:10222000807F3ED0B3F1007FF7D150F80C30886842
:102230004A6805F098FB40F4802009E050F80C3023
:1022400088684A6805F08FFB40F0885040F43020E1
:10225000039001A92078CDE90123FFF7EDFE0028C6
:1022600028DA6FF0150005B0BDE8F08350F80C30A7
:1022700088684A6805F077FB40EA0800E8E750F80C
:102280000C3088684A6805F06EFB40EA0900DFE719
:1022900050F80C3088684A6805F065FB40F08270A1
:1022A000D6E750F80C3088684A6805F05CFB40F0CF
:1022B0008870CDE7237801332370AEE7C1F89830FA
:1022C000C1F8A000013377E74FF0FF30CBE700BF44
:1022D00000ED00E088890000690B00200000F0FF9D
:1022E000000008110000020708B5024B1B68984760
:1022F000002008BD60090020034B044A1860937851
:1023000043F0020393707047600900201000002022
:10231000F0B587B007460E461446002110226846E5
:102320001D4606F02AF902238DF802302A46054B95
:10233000019321466846CDE9047604F03BFB07B0E3
:10234000F0BD00BF8779000008B50649064821F0B6
:102350000701C1F1005202F5802204F0B4FD002013
:1023600008BD00BF07210020640900200E4A012398
:10237000C2F840354FF080424FF08051C2F87835B6
:10238000D1F83001082808D1D1F83411052904D832
:102390000648415C09B1C2F838364FF0804301224B
:1023A000C3F880250020704700E001407F920000C4
:1023B00020B1034B800143F001031847704700BF71
:1023C000B0880000084B70B5C31A0D4607499B1032
:1023D000044659430648402205F0E9FA2B460146D7
:1023E0002046BDE87040184784090020B76DDBB671
:1023F0001886000073B50C4C0C4A4023041B009354
:102400000D460B460A49A41061430646094805F0EB
:10241000F9FA011E05DA30462B4602B0BDE87040DD
:10242000184702B070BD00BF840900206D7A00001B
:10243000B76DDBB61886000010B5EFF311842023CA
:1024400083F31288BFF36F8F074A136823F00201EA
:10245000DB07116002D4012005F007FD84F3118829
:10246000BFF36F8F10BD00BFD4090020002270B5EC
:10247000012104461046FFF70FFD0F4801F0D2FF7F
:102480000E4B984215D101F0DDFF26690C4930460C
:1024900005F05CF800280BDB012535642469084948
:1024A00004F11C0005F052F8002801DBE56400206F
:1024B00070BD6FF00400FBE7BD2500000000AD0B10
:1024C000A88900001FB500220123CDE90223094A93
:1024D000CDF800D06B46CDF804D005F0C0FA002846
:1024E00005DB4FF4FA720023684603F04FFC05B099
:1024F0005DF804FB8B7A000030B4104B0C2202FB19
:10250000003301460020D3E90E529863EFF31180A7
:10251000202484F31288BFF36F8F1C6C04F0C00476
:1025200044F002041C6480F31188BFF36F8F1DB167
:102530002B46034830BC184730BC70478409002044
:102540001886000010B4EFF31182202383F3128861
:10255000BFF36F8F1748016841F002040460C80799
:1025600007D482F31188BFF36F8F012010BC01F0F4
:102570007BBF4FF08041D1F80C04D1F80C14C9078F
:10258000EFD5EFF3118083F31288BFF36F8F0A4901
:102590000B6C03F0C00343F002030B6480F311885B
:1025A000BFF36F8F82F31188BFF36F8F002010BCD1
:1025B000FFF7A2BFD40900208409002010B1012830
:1025C00004D07047034B1B6C5B0701D1FFF794BF2E
:1025D000704700BF840900202DE9F0413849BFF35E
:1025E0005B8F0746012251E8003F41E800200028A8
:1025F000F9D1BFF35B8F33B9324933484B60CB60BD
:102600008A6004F0B6FF7B1E012B2BD8012F07D167
:102610004FF08043D3F81C3403F00303012B21D087
:1026200005F0FEFD0546F8B9284B1B78E3B14FF0E5
:1026300080430222C3F808230646DFF894804FF057
:102640008044D4F81824D4F81834D20315D503F0F4
:102650000303012B01D0012F0FD155B386F311884D
:10266000BFF36F8FBDE8F081EFF31186202383F372
:102670001288BFF36F8F0125DFE7ADB1304605F05B
:1026800063F9D4F81835002BDBD1D4F80421002AE3
:10269000D7D0C4F80431D4F804310123C4F8183574
:1026A000C8F88031A360CCE70021012003F0ACFE24
:1026B000E7E74FF080430222C3F80423D2E700BFCC
:1026C0008009002070090020A00900208C0F002044
:1026D00000E100E008B5074805F053FD38B10648B1
:1026E000FFF70AFE0448FEF741F9002008BD6FF02D
:1026F0001200FBE754860000FD2600000A2838B5CA
:10270000074D044604D1AB680D215B682846984705
:10271000AB6803485B68E1B29847204638BD00BF0C
:1027200054860000F0B54068057B01F01F0444EAC0
:102730004514056987B0002D64D0B2F5001F00F183
:10274000100506D12146284605F020FC002007B0E0
:10275000F0BD01AE0027B2F5800F0197776039D147
:10276000B3F1007F14BF052304238DF80430002348
:10277000CDE904630393836823FA01F111F00101A9
:102780001AD1B2F1A07F17D104F01F03620903F53B
:10279000E0732AD0012A3BD11F4A52F82330DB07CD
:1027A0000AD40DF1030632462146284602F03AF9D2
:1027B0001A4B98421CD0029603AA2146284601F0E3
:1027C000F3FF174B984220D101222146284602F000
:1027D0008DF9BBE7B3F1C06F05D0B3F1007F14BF33
:1027E00001230223C1E70323BFE74FF0A042D4E750
:1027F0003146284602F074F9094B9842DBD06FF05D
:102800000B00A4E76FF08500A1E76FF015009EE7CD
:1028100051F82330FFDE00BF000300500400AD0B71
:102820000000AD0B38B545682B69B3B110352846AB
:1028300002F046F9044680B90146284602F00CF938
:10284000084B98420BD108492246284602F0E4F88A
:10285000224605210620FFF71FFB002038BD6FF040
:102860000400FBE70000AD0B6D280000420970B5C5
:10287000034602D0012A17D070BD0D4E326951684F
:102880000029F9D003F01F0301250C689D400029A1
:10289000F2D08A682A4002D04B68304698472CB163
:1028A000236821461C46F2E7024EE7E72346F8E795
:1028B000408600002C8600002DE9F043466840F277
:1028C0000635D006337B87B002EA050554BFC2F354
:1028D0004010032001F01F07B5F5837F144647EA37
:1028E00043178DF8030044D00FD8062D18D007D811
:1028F000B5B1022D3FD06FF0150007B0BDE8F083F1
:10290000B5F5807FF7D101250AE040F20222954219
:1029100033D0B5F5407F32D0B5F5007FEBD102253D
:1029200022032ED5726801238B40C2F80835326924
:1029300092BB07F01F037F092BD0012F79D13F4AAB
:1029400002EB830284F48033D2F80017C3F3004310
:10295000C4F3404444EA430421F4E16144EA8004BE
:1029600021F0070144EA05230B43C2F80037002099
:10297000C3E70725D4E70425D2E70525D0E70325DB
:10298000CEE7630341BF012372688B40C2F80C3568
:10299000CDE74FF0A042D3E710360DF102023946E1
:1029A000304602F03FF814F4403F80460CD13946DF
:1029B000304605F0E9FA224B9845D8D19DF802102F
:1029C000304602F087F8D2E701AB4FF0000903AAC6
:1029D00039463046CDE90439CDE90199CDF80C905E
:1029E00001F0E2FE164B984285D114F4003315D065
:1029F0009DF803308DF80E3084F48034C4F3004425
:102A00004B4603AA394630468DF80C508DF80D40E0
:102A100001F084FF0A4B9842CDD06CE7CDE9043336
:102A200003AA0DF1030339463046039301F0BCFEBF
:102A3000F0E703F5E07352F82330FFDE00030050A7
:102A40000000AD0B036803F01F025B09026004D0B5
:102A5000012B034818BF002070474FF0A04070477B
:102A6000000300502DE9F04FDFF89491DFF894A1B6
:102A700085B01546834600EB810140F2FF185945A9
:102A800003D1002005B0BDE8F08FDBF800305E0414
:102A9000C3F3C322C3F3080400F1AC805B0C19F844
:102AA0000270444508BF4FF0FF34222B00F2A5808E
:102AB000DFE803F012191F22252B22A3A3A3A33BB7
:102AC00068A3A3A3A3A3A3A3A3A36B818487A3A3A6
:102AD000A38A9194979A9D00C5F80C45601C5ED11D
:102AE0000BF1040BCBE7C5F81445621CF8D00026A7
:102AF0005FE0C5F80845F1E7C5F81045F5E7631C48
:102B0000C5F80845ECD0002604E0661CC5F80C4565
:102B1000E6D0012603A80394FFF794FF039B01224C
:102B200002FA03F3C0F80C3508E0C5F80845002F99
:102B3000DBD1631CD4D0002632460627DBF80030F8
:102B4000019303F40040002818BF002203A800925C
:102B500018BF01260394FFF775FF039C019B009AA1
:102B600000EB8400C3F3412CD0F800473B0243EA5A
:102B70008C03134304EA0A04234343EA4603C0F8E0
:102B80000037ADE7C5F80C45D1E7C5F86045601CD6
:102B9000DBF80030A4D0C3F30043002BB9D003A866
:102BA0000394FFF74FFF039B012606FA03F3C0F8D7
:102BB00008353246C2E7C5F86445E8E7C5F8684518
:102BC000E5E7C5F86C45E2E7C5F82445621C87D007
:102BD00000220126B2E7C5F828457FE7C5F8304551
:102BE000F4E7C5F83445F1E7C5F83845EEE7C5F830
:102BF0003C4573E76FF0150044E76FF0850041E74F
:102C0000CE920000F0F8FCFF2DE9F74306460022C3
:102C100001210220FFF740F90220FFF70DF9776844
:102C200035693C684FF00008C4F800852E60D7F87D
:102C30000C9001AA4146484604F07FFF002837DB8C
:102C4000019BD9F8002019791868FFF70BFF0028BD
:102C50002EDB6B7A3169012B03D0032B26D14FF089
:102C60001008AB7A032B21D195F80BC0BCF1000FF3
:102C700002D0BCF1010F19D12A7A12B1022A15D162
:102C80000E226B687068B3F5164F00687BD02DD8A4
:102C9000B3F5165F7AD016D8B3F5966F78D00AD808
:102CA000B3F5967F77D0B3F5167F77D06FF08500B8
:102CB00003B0BDE8F083B3F5166F72D0B3F5965F3D
:102CC000F4D15C4B3EE0B3F5E14F6DD007D8B3F5DE
:102CD000615F6BD0B3F5964FE8D1574B32E047F6C2
:102CE000122E7345E2D14FF400032BE0B3F5613FA0
:102CF0005ED013D8B3F5963F5DD009D84DF6C02EFF
:102D000073455AD0B3F5614FD0D14FF46B0319E03E
:102D1000B3F5E13FCAD14FF0EB7313E0B3F5612F88
:102D20004ED009D8DFF814E173454CD0B3F5E12F4C
:102D3000BCD14FF0E86305E0DFF804E17345B5D19D
:102D40004FF08053C0F82435736848EA0C081B68BC
:102D500042EA0802C3F86C250B1DD5E9010183E89E
:102D600003007B6899073DD505F1180001F0F4FFD9
:102D7000344B98422AD03448344A012104F009FDEA
:102D80006FF0040094E74FF41D03DBE7304BD9E705
:102D90004FF49E23D6E74FF4A033D3E74FF41C3310
:102DA000D0E74FF41D23CDE72A4BCBE72A4BC9E7E9
:102DB0004FF06C73C6E7294BC4E74FF46503C1E7D6
:102DC0004FF07063BEE74FF08063BBE7287E04F1ED
:102DD0000C0204F5907105F03EF82B7E012098401E
:102DE00001F0B8FA0823C4F800353B7A53B9C4F8A7
:102DF0001031D4F810316B69C4F834350123C4F8AC
:102E0000383523607B689A075CBF4FF48073C4F841
:102E100004337B68DB0644BF4FF48003C4F80433FB
:102E20002B69C4F8443500200123C4F84805A36089
:102E3000E3603DE700B0130000A04E0090D0030017
:102E400040420F000000AD0B7C880000D6920000CD
:102E50000050270000C0750000F03A0000903A01D1
:102E60002DE9F041044607690D4605F0D9F94FF008
:102E70002008B0B92C4B1B789BB16426606804F025
:102E80008AFEF0B9012004F0E4FF013EF6D10021F2
:102E9000012003F0B9FAF0E786F31188BFF36F8FD2
:102EA000F5E7EFF31186314688F31288BFF36F8F91
:102EB000606804F070FE80B986F31188BFF36F8FED
:102EC000EFE7EFF31186314688F31288BFF36F8F77
:102ED000606804F060FE0028DED03B691D70626807
:102EE00038691368C3F844050120C3F84805002079
:102EF000C3F82001D3F82051C3F858015268D3F821
:102F00005801D20608D5626812680820C2F8000588
:102F10004FF48002C3F8042301229A6081F31188E0
:102F2000BFF36F8FBDE8F0818C0F00202DE9F043D7
:102F300083B045680669D5F8208000AF3A1D0021AE
:102F4000404604F0FAFD041E1ADB7B68D8F8002026
:102F500019791868FFF786FD041E11DB696A481CA1
:102F60001BD005F1280000F011FB10F1130F0446EF
:102F70000BD1314A3148012104F054FE6FF01204A4
:102F800020460C37BD46BDE8F083411D05D12C4AD3
:102F90002A48012104F046FEF2E7EB699847B5683C
:102FA0004FF00108D6E9023203EBC2039D4204D37D
:102FB000304604F06AFE0024E2E7286805F0E1F8F4
:102FC0000346B0B92A68297910686C468AB06A4607
:102FD0001C4DD1614FF4007111841B49C2E90550A9
:102FE00042F8101F15484FF41151FEF77BF8A54623
:102FF000C4E728682979EB88D0F810C0D0F8089089
:10300000DCF80040DA0754BF43F4B01383F4D01364
:1030100023F4801208FA01FEDB074CBF44EA0E04D9
:1030200024EA0E04CCF80040D9F800309847041E7A
:10303000A6DB0835B6E700BF139300006C880000DC
:103040003E9300005B930000040000017FB505463D
:10305000406829698A6C0B6D0ABBABB14C6C8B65FF
:1030600016461A46C96C0291CDE9004611B3002BF1
:1030700018BF134600226946039301F0ABFF0E4BC5
:1030800098420AD06FF004032C69236304F12000F6
:1030900002F058FE002384F85C3004B070BD4C6C24
:1030A00013B19A4228BF1A46002C8A6514BF1646EF
:1030B0000026D7E70B46DDE70000AD0B38B50378F7
:1030C0000C4663B98D6D5DB94B6D1C696FF0730370
:1030D000236304F1200002F035FE84F85C5038BD13
:1030E0008B6C33B19D4213D9224A2348012104F04D
:1030F00099FD236DA26D33B19A4221D91D4A1E4814
:10310000012104F08FFD606DBDE83840FFF79EBFE0
:103110005B1B8B6473B94B6B08334B638B6B013B4D
:103120008B6301F1480204F13400383104F086FD6C
:103130006064DEE74B6C002BDBD02B444B64D8E79C
:103140009B1A23657BB9E36B0833E363236C013B74
:10315000236404F1500204F1400104F13C0004F046
:103160006DFDE064CFE7E36C002BCCD01344E36447
:10317000C9E700BF7F9300006C8800002DE9F04F85
:103180008BB000AFC7E9023243687B608B8804696B
:103190009E048046894630D44FF0FF324FF0FF3313
:1031A00004F1100002F0F2FDC4F80490D8F810A069
:1031B000D8F804B09AF85D3023B1DAF800309945B8
:1031C00000F0DD80B9F8046016F400631CD0AF4A4B
:1031D000AF48012104F026FD6FF0850623689B8827
:1031E00013F4005304D1636004F1100002F0AAFD4F
:1031F00030462C37BD46BDE8F08FA369002BCBD1FC
:1032000063689942C8D1D1E7F50716D56D4688B0F5
:10321000D8F800106A469F48C2E905014FF40071D2
:1032200091839D4942F8101F99484FF4E251FDF7F0
:1032300059FFAD466FF01506D0E7300705D5974A20
:103240009348012104F0EEFCF4E7C6F34513082B84
:1032500001D0934AF4E7D9F80050924B9D4201D82F
:10326000914AEDE70BF1080EBEE80F0007F1140CD0
:10327000ACE80F00DEF80030CCF800308B4B9D42FC
:1032800054D98B4B9D4254D98A4B9D4254D98A4B79
:103290009D4254D9894B9D4254D9894B9D422CBFA4
:1032A0004FF000454FF08045B107FD6106F0040383
:1032B0004BD5002B14BF0323022387F82030C6F31D
:1032C000001387F82130DBF80030D3F8083516F00A
:1032D000020F4FEA5312C6F3400103F01F033BD124
:1032E000BAB3012A40F02B817649012202FA03F396
:1032F000C1F80C359AF85D302BB1584601F032FE1A
:1033000000238AF85D30704A534607F1140158468D
:1033100001F0F4FD6D4A904203462BD06C4A5C48A4
:10332000012104F03FFA6FF0040657E74FF00075F3
:10333000BAE74FF08065B7E74FF00065B4E74FF0AC
:103340008055B1E74FF00055AEE7003B18BF0123B1
:10335000B3E74FF0A041C8E74AB1012A40F0F2803C
:103360005849012202FA03F3C1F80835C2E74FF0C9
:10337000A041F6E701238AF85D30CAF800900123E6
:1033800084F85C307B68596A4A1C0AD003F1280033
:1033900004F0A5FC743004D14E4A3D48022104F0EB
:1033A00041FCFB68002B68D163630023A36304F135
:1033B000480204F1380104F1340004F03FFCBB681A
:1033C0006064002B40F08A80E3630023236404F1EF
:1033D000500204F1400104F13C0004F02FFCE064D1
:1033E00020680023236348B183683BB10121083082
:1033F00004F037FC2368186904F0BEFE4046FFF76E
:1034000025FE0023A06B1A46824270D10022256C53
:103410001146A94272D19A42254638BF1A464FF446
:10342000FA535A4355F8203B1B68B2FBF3F2C832FB
:103430000023284602F0AAFC002866D0264A144839
:10344000012104F0EFFB4FF000097868C4F85890B0
:1034500001F088FD84F85D90D8F810606FF0730873
:10346000C6F8308006F1200002F06CFC86F85C9013
:10347000284602F0B1FC46464BE0FB681B686363DC
:10348000002B92D0FB685B6890E700BF9D93000023
:103490006C880000B793000003000001D99300007E
:1034A000F893000047E80100279400008FD0030044
:1034B0001FA107003F420F007F841E00FF083D0050
:1034C00000127A0000030050BD3000000000AD0B78
:1034D000589400007F940000A9940000BB681B680A
:1034E000E363002B3FF471AFBB685B686EE7616B11
:1034F00001EBC201013249680B4485E7E06B00EB48
:10350000C10001314068024483E7266B16F1740F55
:1035100099D02368002B3FF461AE9A68002A3FF4EB
:103520005DAE998811F480557FF458AE186904F0A7
:1035300023FE20682946083004F093FB4EE6C1F8CC
:103540000C15FFDE0023C3F80835FAE700F01F0270
:1035500040090DD001280ED10A4B03EB82030A4A21
:10356000D3F80007024042EA8102C3F800277047FF
:103570004FF0A043F1E702F5E072002353F8223048
:10358000FFDE00BF00030050F0F8FCFFF0B587B08D
:1035900001238DF8023002238DF804306B4403932D
:1035A0000F4601AB0DF1030100240493054602917F
:1035B000059401F095FA0C4B984206460FD103AAE8
:1035C0003946284601F0F0F8B0420BD09DF80310C0
:1035D000284601F07FFA6FF0040007B0F0BD6FF0ED
:1035E0001200FAE72046F8E70000AD0B2DE9F043A2
:1035F00083B045680669D5F83C8000AF3A1D0021CC
:10360000404604F09AFA041E1ADB7B68D8F80020C2
:1036100019791868FFF726FA041E11DB296C481C7B
:103620001BD005F14400FFF7B1FF10F1130F044662
:103630000BD1314A3148012104F079FB6FF01204BB
:1036400020460C37BD46BDE8F083411D05D12C4A0C
:103650002A48012104F06BFBF2E76B6B9847B568D1
:103660004FF00108D6E9023203EBC2039D4204D3B6
:10367000304604F0AAFB0024E2E7286804F081FD4C
:103680000346B0B92A68297910686C468AB06A4640
:103690001C4DD1614FF4007111841B49C2E90550E2
:1036A00042F8101F15484FF41151FDF71BFDA546B8
:1036B000C4E728682979EB88D0F810C0D0F80890C2
:1036C000DCF80040DA0754BF43F4B01383F4D0139E
:1036D00023F4801208FA01FEDB074CBF44EA0E0413
:1036E00024EA0E04CCF80040D9F800309847041EB4
:1036F000A6DB0835B6E700BF13930000748800000E
:103700003E9300005B930000040000012DE9FF419F
:103710000569D0F804802B6D0646A86C002835D1C9
:10372000002B53D0B8F838406A6CEF6C9C4228BF2D
:103730001C46EB6C53B1296D41B107F06041B1F10A
:10374000005F03D0082C6F6E28BF082400926A6CBB
:10375000AC651AB1AA6C002A18BF2246CDE9012730
:103760001BB12B6D002B18BF234600226946404633
:10377000039301F0D9FE184B984229D06FF0040151
:10378000304604B0BDE8F04104F041BB696CEF6C19
:10379000B8F838400A46ABB1834228BF03469C4282
:1037A00028BF1C460029C4D001F06043B3F1005F7C
:1037B000BFD0082C28BF08242246286E04F0CFFE74
:1037C0002A6EB6E7844228BF0446EBE71946D7E7DE
:1037D00004B0BDE8F08100BF0000AD0B10B5027869
:1037E0000346002A5FD10C69A26D32B9606D6FF09B
:1037F0007301BDE8104004F00ABBE06C40B1216DDC
:1038000031B1DB6823B1834202D0616E04F0A7FEC0
:10381000A36CA26D33B19A4213D9234A23480121E4
:1038200004F085FA236DA26D33B19A4222D91E4A63
:103830001E48012104F07BFA606DBDE81040FFF7DF
:1038400065BF9B1AA3647BB9636B08336363A36B87
:10385000013BA36304F1480204F1380104F1340090
:1038600004F06CFA6064DDE7636C002BDAD013447B
:103870006364D7E79B1A23657BB9E36B0833E36383
:10388000236C013B236404F1500204F1400104F174
:103890003C0004F053FAE064CEE7E36C002BCBD09D
:1038A0001344E364C8E710BD7F93000074880000F0
:1038B0002DE9F04F8FB000AF8846FB604368BB60D6
:1038C0008B88046999040646914633D44FF0FF3241
:1038D0004FF0FF3304F1100002F058FAC4F80480EE
:1038E000D6F804B0D6F810A0DBF808303B609AF8A0
:1038F0005D3023B1DAF80030984500F0E480B8F884
:1039000004E01EF400631CD0B04AB148012104F069
:103910000EFA6FF0850823689B8813F4005304D1D6
:10392000636004F1100002F00DFA40463C37BD46DA
:10393000BDE8F08FA369002BC8D163689845C5D155
:10394000CEE71EF0010F15D06D4688B031686A468B
:10395000A048C2E905014FF4007191839E4942F8E5
:10396000101F9B484FF4E251FDF7BCFBAD466FF0D2
:103970001508D0E71EF0080F05D0984A9448012199
:1039800004F0D5F9F3E7CEF34513082B01D0944AA0
:10399000F4E7D8F800307B607A68924B9A4201D8FD
:1039A000914AEBE70BF10C0CBCE80F0007F1100596
:1039B0000FC5BCE80F000FC5D7E900239A4228BF06
:1039C0001A469CE80300894B9A4285E8030017D207
:1039D000874B9A4214D2874B9A4211D2864B9A4215
:1039E00050D8864B9A424FD8854B9A424ED8854B39
:1039F0009A424DD88448854B8549824288BF0B4600
:103A00001EF0020F7B620EF0040343D0002B14BFA4
:103A10000323022387F82830CEF3001387F82930D8
:103A2000DBF80030D3F808251EF0020F4FEA5213DE
:103A3000CEF3400102F01F0233D17BB3012B40F0E3
:103A40001981744901239340C1F80C359AF85D300F
:103A50002BB1584601F01AFD00238AF85D306E4AFA
:103A6000334607F11001584601F0DCFC6B4A9042E6
:103A7000034623D06A4A5648012103F093FE6FF0B3
:103A8000040848E7674BBBE7674BB9E7674BB7E705
:103A9000674BB5E7003B18BF0123BBE74FF0A041E0
:103AA000D0E743B1012B40F0E8805A49012393400D
:103AB000C1F80835CAE74FF0A041F7E701238AF8BB
:103AC0005D30CAF80080012384F85C30BB68196C53
:103AD0004A1C0AD003F1440004F001F9743004D107
:103AE000544A3B48022104F022F9B9F1000F5CD19D
:103AF000C4F834900023A36304F1480204F13801B0
:103B000004F1340004F01AF9FB686064002B54D10E
:103B1000E3630023236404F1500204F1400104F143
:103B20003C0004F00BF900252A46E0640121204600
:103B3000256304F02AF93046FFF7E8FDA06B2A461A
:103B40002B4683427AD10023256C1946A9427CD1A9
:103B50009342254638BF13464FF4FA525A4355F85C
:103B6000203B1B68B2FBF3F2C8320023284602F068
:103B70000DF9024600286FD02F4A1548012104F0A4
:103B8000D6F84FF00008B868C4F8588001F07EFC01
:103B900084F85D806FF07301304604F038F92846F0
:103BA00002F01AF96FF07308B5E6D9F800306363D4
:103BB000002B9FD0D9F804309DE7FB681B68E363B6
:103BC000002BA6D0FB685B68A4E700BF9D930000B4
:103BD00074880000B793000003000001D99300002F
:103BE000F893000047E80100279400000048E8012E
:103BF0000024F40000127A00FF083D007F841E00BC
:103C00003F420F001FA107008FD0030048E80100CA
:103C100090D0030000030050DD3700000000AD0B22
:103C20005894000000093D0080841E0040420F00AF
:103C300020A107007F940000A9940000616B01EBB4
:103C4000C301013349680A447BE7E06B00EBC10024
:103C500001314068034479E7D4F8308018F1740FDB
:103C60008FD0B8F1000F3FF456AE0146306904F032
:103C70008CF850E6C1F80C15FFDE0023C3F80835B8
:103C8000FAE700BF70B5012383400E4ABFF35B8F94
:103C9000DC4352E8001F01EA040542E80056002E0A
:103CA000F7D1BFF35B8F4FF4803282400648C0F8F3
:103CB0000823BFF35F8FBFF36F8F0B4214BF012048
:103CC000002070BDF40900200010014030B4104BFA
:103CD000D3E9005422F07F41521B500922F01F0209
:103CE000521944F10004C3E90024A1F50013B3F50F
:103CF000400F09D2074B1B681A0A1B065C18064BBB
:103D000042F10005C3E9004530BC02F0F7BC00BF3A
:103D100048070020F80900205007002011B3BFF326
:103D20005B8F0123104A834052E800CF4CEA030C1A
:103D300042E800C10029F7D1BFF35B8F0B4A4FF473
:103D400080338340C2F80433094BBFF35B8F1B6899
:103D5000BFF35B8FC340DB0742BF064B4FF400321B
:103D6000C3F80021704700BFF40900200010014093
:103D7000F009002000E100E00D4B1868010A000680
:103D8000BFF35F8F0B4BD3F80435181841F10001D6
:103D9000B3F5801F0AD2084BD3E90023904271EBA0
:103DA000030303D210F1807041F10001704700BF9E
:103DB000F809002000100140500700202DE9F04FC5
:103DC00085B016461F469DF840A00446FFF75AFFEF
:103DD0000190FFF7D1FFB04271EB070354D23E4B85
:103DE000301A67EB0101984271F100014FD23B4B51
:103DF00003EB0413D3E902239F4208BF96425ED02F
:103E000037494FF4803804F1500508FA04F8AD0042
:103E1000C1F848832046ADB204F00AF826F07F4B83
:103E200005F1804504F5A87305F58835DC464FF0AB
:103E300003090293029A2CF07F4341F82230C1F823
:103E40004483D1F80435274A6FF00200C01A604459
:103E500020F07F40904232D9286868B1D1F804350B
:103E60000393A3EB0B0020F07F40B0F5000F26D9A1
:103E7000204603F0DDFF039BBAF1000F07D109EBE9
:103E8000030C09F10109D5E7BAF1000F09D06FF071
:103E9000150520460199FFF741FF284605B0BDE80A
:103EA000F08F0123104ABFF35B8FA34052E8000F4D
:103EB000184342E800010029F8D1BFF35B8F07499E
:103EC0000E98230101EB0412C8500F9B5360C2E906
:103ED00002670025DDE700BF0100800038070020F1
:103EE00000100140FDFF7F00F00900207FB51C4C51
:103EF0001C4BC4F80833C4F848331B4B00254FF063
:103F0000FF304FF0FF31C4F80855C3E902014FF408
:103F10008033C4F80433154B02264FF400320121DC
:103F2000C4F804631120C3F880212A46FDF7B4FFCA
:103F30001120FDF781FF0E4A0123A3602360136067
:103F40000C4B0D4A0093CDE9015500232846FFF79D
:103F500035FF3046FEF740FB284604B070BD00BF79
:103F60000010014003000F003807002000E100E0CE
:103F7000F4090020CD3C0000E0FF7F002DE9F7436D
:103F80002F4CD4F8043399070BD5D4F8043143B13E
:103F90002C4A0023C4F80431D4F8043113680133E7
:103FA0001360D4F80433DA0329D5BFF35B8F264BB3
:103FB00053E8002F22F0010143E800100028F7D158
:103FC000BFF35B8FD30702D4D4F84031BBB10025D7
:103FD000C4F84051D4F84031FFF7CEFEEFF3118220
:103FE000202383F31288BFF36F8F184BD3E9026746
:103FF000B042B94106D282F31188BFF36F8F03B08C
:10400000BDE8F0834FF0FF384FF0FF39C3E9028974
:10401000D3E900101D604FF48033C4F84833C4F86E
:104020004051D4F8403182F31188BFF36F8F0029DB
:10403000E5D0009032463B4628468847DFE700BF80
:1040400000100140F8090020F00900203807002086
:104050001FB5431C27D0154B9842A8BF184601280E
:10406000B8BF01204401FFF787FE114BD3E90013CD
:10407000401AB0F5000F28BF002400F11F022244AF
:104080000C4822F01F02824228BF024652184FF00D
:10409000000009490091CDE9010043F10003FFF759
:1040A0008DFE04B010BD034CDDE700BFFFFF030031
:1040B00048070020E0FF7F00CD3C000008B5FFF777
:1040C0005BFE054AD2E90032C01A61EB02014009E9
:1040D00040EAC16008BD00BF480700204FF0805390
:1040E000D3F83021082A06D1D3F83431052B02D871
:1040F000024AD05C70470020704700BF179500004F
:10410000024AD2F80034002BFBD0704700E0014097
:1041100010B54FF08053D3F83021082A4ED14FF01C
:1041200080420021C2F80C11C2F81011C2F83815F3
:1041300002F54042D3F80414C2F82015D3F808144D
:10414000C2F82415D3F80C14C2F82815D3F81014AB
:10415000C2F82C15D3F81414C2F83015D3F818147B
:10416000C2F83415D3F81C14C2F84015D3F8201443
:10417000C2F84415D3F82414C2F84815D3F828140B
:10418000C2F84C15D3F82C14C2F85015D3F83014DB
:10419000C2F85415D3F83414C2F86015D3F83814A3
:1041A000C2F86415D3F83C14C2F86815D3F840146B
:1041B000C2F86C15D3F84434C2F87035FFF78EFF9F
:1041C00018B13A4B3A4AC3F88C26FFF787FF18B16B
:1041D000384BFB22C3F81825FFF780FF70B14FF072
:1041E00080414FF08053D1F8E42ED3F8583222F0BA
:1041F0000F0203F00F031343C1F8E43EFFF76EFF15
:1042000020B12D4B4FF40072C3F840264FF080537D
:10421000D3F83031082B1AD14FF08043D3F8002463
:10422000D20744BF6FF00102C3F800244FF080535F
:10423000D3F83431052B02D8204AD35C3BB14FF080
:104240001023D3F808224FF08043C3F858254FF0CD
:104250001023D3F80022002A03DBD3F80432002B0A
:1042600022DA174901234FF01020C1F80435122437
:10427000FFF746FFC0F80042FFF742FFC0F80442D4
:10428000FFF73EFF0023C1F80435FFF739FFBFF306
:104290004F8F0C490C4BCA6802F4E0621343CB60A9
:1042A000BFF34F8F00BFFDE710BD00BF00500040BF
:1042B0004881030000F0004000900240119500008A
:1042C00000E0014000ED00E00400FA0530B50468AC
:1042D000CCB1BFF35B8FB4FA84F3C3F11F03DBB23D
:1042E00001229A4024EA020250E8005FA54204D16C
:1042F00040E8002CBCF1000FF6D1BFF35B8FE6D194
:1043000002480B7030BD0248FCE700BF0000AD0B57
:104310000200AD0B10B50368CB40DB0714D40123BA
:104320008B400268BFF35B8F43EA020150E8004F05
:10433000944204D140E8001CBCF1000FF6D1BFF359
:104340005B8FEED1014810BD0148FCE70000AD0BCA
:104350000400AD0B014BC3F80405704700F00140A9
:10436000F7B5044618B1012823D003B0F0BD4FF0D3
:1043700080430222C3F808230122DA60C3F8040153
:10438000D3F80431064601238DF8073042F2107548
:104390004FF08047D4B1012CE7D1D7F80C3403F4A7
:1043A0008033AEBB83B3012003F053FD013DF4D154
:1043B0002AE04FF080430022C3F808035860C3F896
:1043C0000021D3F800310DF10706DCE7D7F81834E7
:1043D00003F480333EB9002BC7D0012003F039FD30
:1043E000013DF3D1C1E7D7F8182402F0030232608F
:1043F000002BBAD09DF80700012803D103F029FD56
:10440000013DC7D1012CB0D1054B00225A71ACE758
:10441000D7F80C2402F001023270002BEAD1F3E746
:10442000FC090020044B1A7922B9012218609A80F5
:104430000248704702487047FC0900200000AD0B9D
:104440000C00AD0B08B5074B1B682BB10020FDF726
:1044500015FD08B9FDF7F0FC4FF080430022C3F8CA
:10446000182508BDFC09002010B510B1012843D063
:1044700010BD4FF08043D3F81814D3F81824C803A4
:1044800021D502F00303012B04D013B10020FFF764
:1044900067FF00234FF080420220C2F8183508223F
:1044A0004FF4827303F180430021196002F18042CE
:1044B0001C6801241460154A12680AB34FF0804347
:1044C000C3F80403D4E7D3F81424D107E1D5D3F813
:1044D0001C249207DAD40D4A12681AB10222C3F8DA
:1044E0000423C5E7D3F80421002AFBD00022C3F837
:1044F0000421D3F80431BBE700224FF48073D1E7E5
:104500001A68002AFCD019601B68B1E7FC0900207A
:1045100010B54FF08043D3F800216AB10022C3F8F0
:104520000021D3F800210122C3F80823114B587948
:1045300010B95A711B6898474FF08043D3F8042193
:1045400072B10022C3F80421D3F80421D3F818244F
:10455000D3F81824920704D10122C3F818259A60D1
:1045600010BD0222C3F80823024BBDE810401B68AF
:1045700001201847FC090020036803F01F025B09B3
:10458000026004D0012B034818BF002070474FF091
:10459000A040704700030050034A430900F01F0089
:1045A000D35C1844C0B270471D95000070B5054635
:1045B000FFF7F2FF0C4C08300E4634F81030DA05E5
:1045C00008D5C3F3432304EBC302284654F8333021
:1045D00052689847A3682BB1E26831462846BDE887
:1045E0007040184770BD00BF6401002008B5FFF798
:1045F000D3FF034B083033F81000400B08BD00BF59
:104600006401002008B5FFF7C7FF034B083033F8FB
:104610001000C0F3400008BD6401002008B5FFF79A
:10462000BBFF034B083033F81000C0F3401008BD47
:1046300064010020034611F0010010B5CCB20DD189
:10464000A207C4F3400012D5094AD2F820055860E9
:10465000C2F82005003818BF012008E04FF0A04143
:10466000D1F820251A60C1F82025002AE8D010BD15
:104670000003005010B5FFF78FFF124A083032F8E0
:104680001030D9051CD5C3F3432123F4F85322F885
:10469000103002F10E04002034F8023F13F4807F42
:1046A00003D0C3F3432399420AD001303028F3D119
:1046B000002342F831300448BDE81040FFF72ABE1D
:1046C00010BD00BF64010020DC010020F0B50546EC
:1046D00000200446012607468C420BD1114BD3F82B
:1046E0007C2132B10022C3F87C21D3F87C3140F028
:1046F0000040F0BDE3B29B0003F580729B0806FA10
:1047000003F31D420BD002F1804202F5C042D2F801
:1047100000C0BCF1000F02D01760126818430134CA
:10472000DAE700BF00600040F7B506460846FFF72D
:1047300033FF194F00F108050C4637F81530DB0739
:1047400027D5304603F0FCFB2046FFF767FF40B15A
:104750002046FFF74BFF316800F5A270002341F8B7
:1047600020302046FFF786FF002301A827F81530E8
:104770000194FFF701FF019B00EB8300074BD0F88A
:104780000027134043F00203C0F80037044803B089
:10479000F0BD0448FBE700BF64010020F0F8FCFF17
:1047A0000000AD0B0400AD0B2DE9FF41164680461D
:1047B0000846FFF7F1FE0D463168044609B3284666
:1047C000FFF720FF18B12846FFF728FF10BB002392
:1047D000CDE900338DF80E308DF80F300DF10F025A
:1047E0000B4628460DF10E0103F041FB474A04F148
:1047F000080132F8113023F0020343F0010322F8DC
:104800001130736863B328461F785968FFF7FAFEC2
:1048100010B1D1B13E4826E03C4A04F1080032F81C
:10482000103023F02003DB04DB0C22F8103061B1E0
:10483000032FEFD87168496891F800C0D8F80010CC
:10484000A7B90CF5A27C41F82C70304A04F108019C
:1048500032F8113023F01C0343EA870322F81130A9
:10486000B3684BBB2B4804B0BDE8F08101EB8C0171
:1048700043EA4C33D1F810E52EF0030EC1F810E5F1
:10488000D8F8001001EB8C0E43F02003DEF8101571
:1048900022F8103021F44F3121F44071CEF8101578
:1048A0002902DEF8108501F47C5141EA074141EA12
:1048B0000801CEF81015C8E7D3E900672846FFF7CE
:1048C000D9FE002ECED0114DD5E90023964203D15A
:1048D0009F4201D1002209E00F480DF10F01FFF7BF
:1048E000F5FC0C4B9842BED19DF80F2045F8326084
:1048F00005EBC20308345F6035F8143043EA422305
:1049000043F4807325F81430ACE700BF6401002045
:104910000400AD0B0000AD0BDC0100202DE9F043DD
:104920000C4685B08046204611461E46FFF734FEF1
:10493000054629B32046FFF765FE18B92046FFF764
:104940006DFE18BB314F05F1080937F8193013F027
:104950001C0F02D04B78012B18D001238DF80F309B
:104960000023CDE900134A1C8B1C20460DF10F01DA
:1049700003F07DFA37F8193043F0030327F81930B4
:10498000002E41D02046FFF73DFE18B9204805B063
:10499000BDE8F08396F800C0D8F800301B4F0CF546
:1049A000A272002143F8221005F1080237F8121014
:1049B00021F02001C904C90C27F8121075781DB325
:1049C000D8F80000B67800EB8C002D04D0F8103534
:1049D00023F4991323F4F853C0F81035230203F499
:1049E0007C5305F440353605D0F810E52B4306F42A
:1049F000801641EA4C31334341F0200143EA0E0373
:104A000027F81210C0F810350248C0E764010020F2
:104A10000400AD0B0000AD0B014BC3E9021270475F
:104A20006401002010B508461446FFF7F7FD50B1A9
:104A30000846FFF7B1FD054B083033F81030044845
:104A40005B0B237010BD0348FCE700BF640100202E
:104A50000000AD0B0400AD0B70B5164D95F880400D
:104A600006462CBB2146602205F1100003F085FDAF
:104A700030682E6F21468E420ED10023C0F87C3163
:104A8000D0F87C3140F30730FDF7D6F901230A480E
:104A900085F88030AB6770BDCBB29B0003F58072A8
:104AA0007C2B08BF845001F1010108BF8358E2E765
:104AB0000248F0E7640100200000AD0B0C00AD0BD4
:104AC000034B93F88000003818BF0120704700BFE7
:104AD000640100200148FFF71DBC00BFD801002081
:104AE0000148FFF7F3BB00BFD801002073B503688E
:104AF0001646D3F80423002AA8BF4FF0004205460B
:104B0000A8BFC3F8042308460C46FFF787FD00B38F
:104B10000846FFF777FD0146D8B92046FFF766FD46
:104B200004B2A40004F58072034628688150296805
:104B300082582144D1F8102542F00102C1F8102515
:104B40002EB12968012202FA03F3C1F8043302B03E
:104B500070BD2046FFF720FD0F4B083033F81030B2
:104B6000C3F38203042B12D0052B12D001A80194A9
:104B7000FFF702FD019AD0F81035D34003F001038E
:104B8000991C204602B0BDE8704003F0B9B903217A
:104B9000F7E70221F5E700BF640100202DE9F04F9F
:104BA000694BDFF8A881D3F80403D8F87010C0B2BD
:104BB00089B040F00040FFF789FD051E2FDAC2469C
:104BC00000235AF87C1F06A8CDE90633FFF732FD13
:104BD0005F4B01930DF118094FF0000B019A12F889
:104BE000013B0192DA0803F007031AF8022022FAC7
:104BF00003F3DA071CD409F10409BBF1000F14D048
:104C0000D8F870104FF00040FFF760FDD8F87C1026
:104C100006A8FFF70FFD0028DAD125F00045012492
:104C2000002D79D109B0BDE8F08F4FF0010BD5E729
:104C3000484B5B440293D9F800100029DBD0029B5B
:104C400091FAA1F11C78B1FA81F141EA44142046AD
:104C5000FFF7A2FC0830059438F81070C808BB08AC
:104C600019F80020039301F00701012303FA01F171
:104C700022EA010209F8002005A8FFF77DFC059A49
:104C8000039B02F5E072C7F3820650F822205B070F
:104C90003746C2F3014224D520463946D6B2FFF743
:104CA00085FC05A80594FFF767FC059B03F5E073F9
:104CB00050F82330C3F301439E4207D10021204620
:104CC00003F01EF93146204603F01AF905A80594B1
:104CD000FFF752FC059B012202FA03F3C0F82035CE
:104CE000A9E7022A0CD10321204603F009F906F0B6
:104CF0000503012BEAD139462046FFF757FCE5E7CB
:104D000002212046039203F0FBF8032EF3D0039A0E
:104D1000032ADBD1022EEDE795FAA5F3B3FA83F36C
:104D200004FA03F29B0003F1804303F5C04325EA34
:104D30000205D3F81005D3F81015C0F30520C1F310
:104D40000141FFF733FC6BE7006000406401002085
:104D50002D9500002D95000001460148FFF7B6BAD9
:104D6000E8010020036803F01F025B09026004D021
:104D7000012B034818BF002070474FF0A040704738
:104D80000003005007B5019001A8FFF7EBFF019B5E
:104D900000EB8300054BD0F80027134043F00303DA
:104DA000C0F8003703B05DF804FB00BFF0F8FCFF6B
:104DB00073B5CB7B0446002B38D10B7B0878012BD5
:104DC00077D803F0F5F80B78019301A8FFF7CAFF35
:104DD000019B00EB83003C4BD0F80027134043F0CD
:104DE0000103C0F800374878FF2804D003F0E0F84A
:104DF0004878FFF7C7FF8B78FF2B0FD001A88D7B7A
:104E00000193FFF7AFFF019B00EB83002E4BD0F81F
:104E10000027134043EA8503C0F80037C878FF280D
:104E200004D003F0B8F8C878FFF7ACFF237927481F
:104E3000CA78282505FB03039A770B7C9BB94B782E
:104E400025680E78FF2B18BF1A468B78C5F80865C1
:104E500008BF4FF0FF32FF2B08BF4FF0FF33C5F8FC
:104E60000C25C5F8103523688A68C3F824254B7BC8
:104E70000A7B2568003B18BF0123022A1CD0032AA5
:104E80001DD0012A01D143F00203C5F8543523791E
:104E90004979282202FB0303D97723795343C35866
:104EA00083B1206840F3073002B0BDE87040FCF7E2
:104EB000C3BF03F070F886E743F00403E5E743F06F
:104EC0000603E2E702B070BDF0F8FCFF040A002020
:104ED00007B5019001A8FFF745FF019B00EB830098
:104EE000054BD0F80027134043F00203C0F8003709
:104EF00003B05DF804FB00BFF0F8FCFF2DE9F041C2
:104F000090F80480144C4FF0280C0CFB08FC04EBC8
:104F10000C06074696F81CE0BEF1000F19D144F8C4
:104F20000C20736041B1CB7B86F82530CB78B3770A
:104F30004B79F377FFF73CFF3A6808480123C2F842
:104F40000035282202FB0844002262772377BDE85F
:104F5000F0810348FBE700BF040A00200000AD0B0E
:104F60000C00AD0B70B50679194C05682823734306
:104F7000E35833B145F30730FCF76CFF0423C5F861
:104F800008330023C5F80035282303FB064393F8B4
:104F90002530BBB9D5F80805FFF79AFFD5F81005FD
:104FA000421C01D0FFF794FFD5F80C05431C01D03B
:104FB000FFF78EFF282303FB0643987FFF2801D0CD
:104FC000FFF786FF282303FB06440023237770BDE9
:104FD000040A00202DE9F8430779394C28237B4344
:104FE0009046E2180E46517F8146002966D1E3586B
:104FF0000BB10123537796E80F00282505FB0745E1
:1050000005F10C0C8CE80F00A87F0023FF2885F821
:10501000243001D002F0CCFF2823B8F1000F06D0D5
:1050200003FB0743002227485A77BDE8F883D9F8E5
:10503000005003FB07430422C5F80823C3F820806F
:10504000C5F80881D5F8082172689AB133681B78D1
:10505000C5F81C357368012B0ED933685B78C5F829
:105060001C3528237B43E65876B10423C5F8043366
:105070001548DAE7DB7FEBE7F368012BF1D928234A
:1050800003FB0743DB7FEAE707EB870104EBC10182
:10509000D5F80831002BFBD0C5F808612846D5F8B3
:1050A000083102F092FF0028F2D1282303FB0744C5
:1050B000A07FFF28DCD002F06EFFD9E70348B4E7F9
:1050C000040A00200300AD0B0000AD0B0B00AD0B7C
:1050D00002494FF0402002F0ABBF00BF040A00209D
:1050E0000149024802F0A4BF2C0A0020003002400F
:1050F000036803F01F025B09026004D0012B034820
:1051000018BF002070474FF0A040704700030050C8
:105110000F4B984219D00DD80E4B984215D007D896
:105120000D4B984211D00D4BC31A5842584170474D
:105130000B4BF9E70B4B984207D004D80A4B984227
:1051400003D00A4BF0E70A4BEEE70120704700BF9F
:1051500080841E0020A1070048E8010090D00300D1
:1051600040420F000024F40000093D0000127A00C4
:105170000048E80173B51646421C1C460546069BCE
:1051800018D0012902D1BBB102F0BFFF01A80195DF
:10519000FFF7AEFF019B00EB83002402D0F800274D
:1051A000074B44EA86040C4313401C4344EA410184
:1051B000C0F8001702B070BD02F0B4FFE6E700BF10
:1051C000F0F8FCFF2DE9F04F814B4D6990F8049009
:1051D0009D4285B006460C4600F0C78000F2B780BD
:1051E0007C4B9D4200F0C48000F2A9807A4B9D4226
:1051F00000F0C180794B9D420CBF4FF080654FF0AD
:105200008045774F94F82300242202FB0973997F8D
:1052100060F3000199773379217C02FB03739A7F55
:1052200061F341029A7794F82380B8F1000F34D1EA
:1052300062696C4B9A420CBF4FF0030A4FF0000AB0
:10524000237E012B94BF0023012300932068534643
:1052500042460121FFF78EFFCDF80080606853467B
:1052600042460121FFF786FFCDF80080A27EA068AC
:1052700053464146FFF77EFF237C83F001030093F2
:10528000E068534642460121FFF774FF0121009177
:10529000E06953464246FFF76DFF94F8212024232E
:1052A000002A71D003FB09734FF0FF321A62D4E970
:1052B00000BAE369D4F80890A07C217E94F81980A4
:1052C000D4F80CE0227C94F822C0029394F82030A9
:1052D00094F824400393336874B9029CC3F808B56A
:1052E000C3F80CA5C3F81095C3F86C45C3F814E5D2
:1052F000C3F86825C3F864C5B8F1000218BF0122DD
:105300000229C3F8C005C3F8245558D0032959D041
:10531000012901D142F00202C3F85425039AC3F8CF
:105320006025337924225343FB58002B4DD030683D
:1053300040F3073005B0BDE8F04FFCF77DBD2A4BC8
:105340009D420CBF4FF080554FF0804559E7274BE9
:105350009D4213D0234B9D4213D0254B9D420CBF41
:105360004FF000454FF080454BE74FF0005548E7C0
:105370004FF0006545E74FF0007542E74FF02065BC
:105380003FE74FF0A0553CE703FB0979E168C9F816
:105390002010217C99F81E3061F3410389F81E30FA
:1053A000E369D4F80890A07C217E94F819800293D8
:1053B000D4E900BA4FF0FF3E4FF0020C86E742F00E
:1053C0000402A9E742F00602A6E705B0BDE8F08FA7
:1053D00080841E0020A1070048E8010090D003004F
:1053E000580A00200048E80140420F000024F40061
:1053F00000127A00431C07B50ED0019001A8FFF7F8
:1054000077FE019B00EB8300054BD0F8002713408B
:1054100043F00203C0F8003703B05DF804FB00BF9F
:10542000F0F8FCFF2DE9F8430746144C97F8048088
:10543000242505FB08F504EB05091E4699F81C30E8
:10544000C3B999B14869FFF763FEA8B13846625104
:10545000C9F80460FFF7B6FE242303FB08440023C9
:105460006377074801232377BDE8F8836251C9F8C1
:105470000460F1E70348F7E70348F5E7580A00201E
:105480000000AD0B0C00AD0B0400AD0B2DE9F0419D
:10549000044606790068214D40F30730FCF7DAFC3A
:1054A00024237343EB5853B123681D4AC3F80823E0
:1054B00006EBC601206805EB810102F040FE2421C5
:1054C000236801FB0651D3F80805D3F80C75D3F80F
:1054D00010858B7FDB0714D4FFF78CFF4046FFF766
:1054E00089FF3846FFF786FF086AFFF783FF2368C6
:1054F000D3F86C05D3F81415FFF77CFF0846FFF7C7
:1055000079FF2368074A934204BF01225A6024238B
:1055100003FB065500232B77BDE8F081580A0020D5
:105520005201080000F002402DE9F0430779DFF84E
:10553000AC8124237B43164608EB03020D46517FC2
:1055400085B08146002940F0C68058F8033023B169
:1055500016F0140F04BF0123537795E80F0024249D
:1055600004FB078404F10C0C8CE80F00206A431C38
:1055700004D0A37F99071AD502F0C7FD2968D9F88E
:10558000004021B101F06043B3F1005F06D1AB6888
:1055900083B103F06043B3F1005F0BD0242303FB1E
:1055A000078300224E485A7705B0BDE8F08302F029
:1055B000B9FDE3E74B4B9C4224D14FF080436A682E
:1055C000D3F8000E484B1860E2B1484821F4FF536D
:1055D00023F01F0383426ED85018DFF814C1C3F3C1
:1055E0004F3101228A40002103F50053984241EADD
:1055F00002014FEA420201D96345F5D34FF08043DF
:10560000C3F8001E16F0010318BF0123C4F850357B
:1056100016F0020318BF0123C4F8403595E80F00C7
:10562000EC468CE80F00039BC4F84405C4F8481509
:10563000C4F83425C4F838350023C4F81831D4F838
:10564000183116F008054FF00703C4F800350FD1E4
:1056500024237B4358F803200123236142B9D4F863
:105660001831002BFBD062464021204602F00FFD8E
:1056700024237B4358F803301BBB1A4B9C4201BFC9
:10568000194B1A684FF08043C3F8002E242303FB04
:105690000783186A421C04D09B7F9B070ED502F03B
:1056A00041FD35B907EBC70708EB8701204602F03B
:1056B00046FD104878E74FF480719FE702F025FD22
:1056C000EFE716F0040F4FF0400314BFC4F808339F
:1056D000C4F80433EDE7084866E700BF580A002025
:1056E0000A00AD0B00F00240540A0020FFFF00202A
:1056F000002001200000AD0B0B00AD0B10B5134ACC
:105700001348402102F0C3FCF8B1124B124C1A6846
:105710004FF08043C3F8002E206A421C04D0A37FC0
:105720009B070FD502F0FEFC637F1BB10A490848B6
:1057300002F005FD002323720848D4E90031BDE8DA
:105740001040184702F0E1FCEEE710BD640A0020AB
:1057500000F00240540A0020580A0020600A00208D
:1057600008B5124BA8220021184602F006FF0322BA
:1057700002610F4942610F4A8161C2614FF4806248
:105780000262002282624262C26201660A49416686
:1057900010218166094902670346C266426711F813
:1057A000010D98540132102AF9D108BD7C0A00205D
:1057B0002F9500008C0B00207C0B002048950000EA
:1057C0002DE9F84FDFF87C80182606FB008E00FBE1
:1057D00006664644DEF82440DEF828C07368A44517
:1057E00007468946154603EB040022D8DEF820B0B0
:1057F000ABEB040A0AF1FF339A4203D802F0AFFE82
:105800002C440FE063449A4219D852462C4402F0CB
:10581000A6FEB4EB0B0405D07068224609EB0A0122
:1058200002F09DFE182303FB078301205C62BDE8A4
:10583000F88F0CF1FF3CACEB040C9445DED2002059
:10584000F5E700BF7C0A0020034B182202FB00335F
:105850009A6A586A801A70477C0A002003484FF001
:10586000FF324FF0FF3300F0B9B900BF4002002013
:10587000014800F02BBA00BF4002002010B50446DA
:10588000FBF74CFB0348044A012101F082FF20464C
:1058900002F082FC5C880000499500002DE9F84385
:1058A000044600AF0D46EFF31188202383F31288DE
:1058B000BFF36F8F0428294A98BF294B9668117C43
:1058C00094BF53F82030274BE9468AB06A462648F1
:1058D000C2E9073140F201339384244BC2E9050445
:1058E00042F8103F224800234FF43151FBF7FAFBF6
:1058F000CD4645B1EB69C3F3080323B11D4A1C48EB
:10590000012101F046FF2EB1304602F092FC08B1B1
:10591000037803B91848E9468AB06A46174BD06144
:10592000C2E9053640F201331384154B42F8103FAB
:1059300000230F484FF41151FBF7D4FB2946CD4605
:105940002046FFF79BFF88F31188BFF36F8F304627
:10595000FCF7F6F9BD46BDE8F88300BF240B002034
:10596000B08B0000589500006E9500000500000106
:105970005C8800009695000066950000B7950000D1
:105980000400000138B5094B53F82040013053F8AA
:105990002050A54200D838BD636823B1204602F0EC
:1059A00003FC0834F5E723689847FAE7C48B000046
:1059B00070B52B4B2B4C2C4D012286B003201A7056
:1059C000FFF7E0FF00F0C4FF02F00AFC0420FFF73D
:1059D000D9FF2646AE4204F1300410D300F056FC45
:1059E000204C224EAC4226D300F064FCFAF7CAFBEE
:1059F0001F4A137B23F00103137306B070BD54F8E4
:105A00000C3C059354F8103C049354F8143C039355
:105A100054F8183C029354F81C3C019354F8203C71
:105A2000009354E90A2354E90C0100F0F1F954F809
:105A3000303C5E65CDE7D4E90A23B3F1FF3F08BFF0
:105A4000B2F1FF3F05D052EA0301206803D102F012
:105A5000F2FB3034C6E73146183000F0D5FDF8E7E8
:105A60008C0F00202488000024880000658300003B
:105A7000D807002008B50348034A0021121A02F093
:105A8000ABFB08BD78020020900F002070B500230A
:105A900086B00122CDE90423134E144D01930F2249
:105AA000CDE902321249142303FB005506EBC01660
:105AB00004464FF4C07000FB04110E4B00954FF4E8
:105AC000A072304600F0A4F9737B0B4AEE6023F01D
:105AD000040373734FF4046304FB033313442C7403
